:020000040800F2
:10000000005000204D200008F11F0008F51F0008D7
:10001000F91F0008FD1F0008012000080000000073
:1000200000000000000000000000000005200008A3
:1000300009200008000000000D2000081120000821
:1000400095200008952000089520000895200008BC
:1000500095200008952000089520000895200008AC
:10006000952000089520000895200008952000089C
:10007000952000089520000895200008952000088C
:1000800095200008952000081520000895200008FC
:10009000952000089520000895200008952000086C
:1000A000952000089520000895200008952000085C
:1000B00095200008312000089520000895200008B0
:1000C000952000089520000895200008952000083C
:1000D0009520000895200008952000083D20000884
:1000E00095200008952000089520000800000000D9
:1000F0000000000000000000000000000000000000
:0C01000000000000000000005FF808F1A3
:10010C0010B5054C237833B9044B13B10448AFF345
:10011C0000800123237010BDD800002000000000D7
:10012C003868000808B5034B1BB103490348AFF30B
:10013C00008008BD00000000DC00002038680008CA
:10014C00034613F8012B002AFBD1181A013870470B
:10015C0010B590F8493004465BBB01F0EFFFD4E9D1
:10016C001923801A984200D810BD01F0E7FF94F8CB
:10017C006E30B4F86C2060666BB3012B26D0E36E46
:10018C0023F07F43B3F5803F08D1002384F86E3011
:10019C00E36E00F57A70606623F07F4340F6FE71E3
:1001AC008B4204BF012384F86E304FF080431A64F5
:1001BC0010BD4022FF21083005F0A6FA002384F878
:1001CC004930A4F86C3084F86E30C6E7013A92B22C
:1001DC00A4F86C20D3E7013292B2A4F86C20CEE7DD
:1001EC002DE9F04190F849300446FBB14022002142
:1001FC00083005F089FA04F1500600226423B04659
:10020C004FF4967784F84920A36604F14A0525F843
:10021C00027B0721032001F097FBA845C0EB0010DF
:10022C0006F8010BF3D101F089FF606601F086FF3F
:10023C00D4E91923801A984201D8BDE8F08101F065
:10024C007DFF94F95020B4F84A30606613441BB219
:10025C00012B40F3C580A4F84A30B3F5167F75DA4C
:10026C0094F95120B4F84C3013441BB2012B40F3D9
:10027C00A380A4F84C30B3F5167F80F28B8094F9F0
:10028C005220B4F84E3013441BB2012B40F3BC8007
:10029C00A4F84E30B3F5167F6ADA0021402204F13F
:1002AC00080005F031FA4FF0800EB4F94E3060487A
:1002BC00B4F94A2080FB0315B4F94C1080FB02768C
:1002CC00DB1780FB0170C3EB6513DBB2D217C3F1F4
:1002DC000705C2EB6612C91704EBC505D2B2C1EB18
:1002EC00601105EB020CC9B29CF808004EFA01F63D
:1002FC0076B2571C3043FFB28CF808003D4495F899
:10030C000880481C46EA080129720133C0B29CF8E7
:10031C000810DBB24EFA00F040B2C3F1070304EB55
:10032C00C30301438CF808101A44117A3B4431433F
:10033C0011722C7A46EA000104432C72147A204381
:10034C0010721A7A11431972BDE8F0814FF41673CA
:10035C00524284F85020A4F84A300521002001F0C4
:10036C00F3FA94F85020C31E134484F8503077E706
:10037C004FF41673524284F85220A4F84E300521E3
:10038C00002001F0E1FA94F85230C21E134484F8B4
:10039C00523082E74FF41673524284F85120A4F87D
:1003AC004C300521002001F0CFFA94F85120C31EE7
:1003BC00134484F8513062E70123524284F85120EF
:1003CC00A4F84C300521002001F0BEFA94F851300D
:1003DC00C21E1A4452B2B4F94C3084F851204AE788
:1003EC000123524284F85020A4F84A300521002001
:1003FC0001F0AAFA94F85030C21E13445AB284F891
:10040C005020B4F94A3028E70123524284F8522094
:10041C00A4F84E300521002001F096FA94F85230E1
:10042C00C21E13445AB284F85220B4F94E3031E74C
:10043C001F85EB5138B590F84930044673B1C36D44
:10044C009BB10025402280F849502946083005F020
:10045C005BF9FF2384F8615084F8623001F06EFE82
:10046C00D4E91923801A984200D838BD01F066FEF1
:10047C000722606604F1080104F1090005F02AF96D
:10048C00072204F1100104F1110005F023F90722F1
:10049C0004F1180104F1190005F01CF9072204F10C
:1004AC00200104F1210005F015F9072204F12801BF
:1004BC0004F1290005F00EF9072204F1300104F1D2
:1004CC00310005F007F9072204F1380104F1390075
:1004DC0005F000F9072204F1400104F1410005F098
:1004EC00F9F8002294F8623022720133DBB2072B48
:1004FC0084F862302274227684F8202084F8282034
:10050C0084F8302084F8382084F8402004D0002B64
:10051C00ABD194F8613011E094F8613094F860102C
:10052C000133DBB299429CBF134684F861204FF033
:10053C00000288BF84F8613084F86220012501E054
:10054C0094F86130E16D6A1E2046C95CD2B201F0AC
:10055C0073F904F835000135092DF1D138BD00BF10
:10056C002DE9F04190F84930044653B14022002166
:10057C00083005F0C9F8002384F8493001F0DEFD9D
:10058C00606601F0DBFDD4E91923801A984201D88A
:10059C00BDE8F08101F0D2FD217C227E94F8203060
:1005AC00490052005B0094F8286094F83050606663
:1005BC00217494F8380094F84010227684F8203096
:1005CC00627A637C76006D004000490052005B004B
:1005DC00277A84F8286084F83050667E94F821508D
:1005EC0084F8380084F8401094F8290094F83110FD
:1005FC006272637494F8392094F8413076006D007F
:10060C004000490052005B007F00667684F8215060
:10061C0084F8290084F8311084F83920277284F882
:10062C004130A07AA17CA27E94F82230400049008F
:10063C0052005B0094F82A6094F83250A072A174B6
:10064C0094F83A0094F84210A27684F82230E27AB8
:10065C00E37C76006D004000490052005B0084F89A
:10066C002A6084F83250E67E94F8235084F83A00DD
:10067C0084F8421094F82B0094F83310E272E3746F
:10068C0094F83B2094F8433076006D00400049000C
:10069C0052005B00E67684F8235084F8331084F81B
:1006AC003B2084F8433084F82B00207B217D227F73
:1006BC0094F824304000490052005B0094F82C6000
:1006CC0094F834502073217594F83C0094F844103D
:1006DC00227784F82430627B637D76006D004000C5
:1006EC00490052005B0084F82C6084F83450667F1B
:1006FC0094F8255084F83C0084F8441094F82D00AC
:10070C0094F835106273637594F83D2094F8453075
:10071C0076006D004000490052005B00667784F85B
:10072C00255084F8351084F83D2084F8453084F841
:10073C002D00A07BA17DA27F94F8263040004900BB
:10074C0052005B0094F82E6094F83650A073A1759B
:10075C0094F83E0094F84610A27784F82630E27B99
:10076C00E37D76006D004000490052005B0084F888
:10077C002E6084F83650E67F94F8275084F83E00BB
:10078C0084F8461094F82F0094F83710E273E37550
:10079C0094F83F2094F8473076004000490052000E
:1007AC005B006D00E67784F82F0084F8371000208A
:1007BC00042184F8275084F83F2084F8473001F056
:1007CC00C3F810F0FF063FF4E3AE4FF000088027AB
:1007DC000721002001F0B8F805460721002001F0A0
:1007EC00B3F8EBB22344197AC2B208F1010847FA04
:1007FC0002F20A435FFA88F18E421A72E8D8BDE819
:10080C00F08100BF90F8493053B110B54022044636
:10081C00FF21083004F078FF002384F8493010BD24
:10082C00704700BF2DE9F04F074607254FF0800CAD
:10083C000120A64B07F1470407EB050B4CFA05F218
:10084C0012F0010F14BF4FF480394FF0010912F070
:10085C00020F0CBF4FF001084FF48038196912F0E9
:10086C00040F0CBF4FF0010E4FF4803E41F40031E9
:10087C001961196912F0080F41F4802119611E6980
:10088C0008BF012146EA09061E611E6918BF4FF414
:10089C00803146F004061E611E6912F0100F46F4FA
:1008AC0080261E611E6908BF4FF0010A46EA080641
:1008BC001E611E6918BF4FF4803A46F004061E6193
:1008CC001E6912F0200F46F480261E611E6908BFB7
:1008DC004FF0010946EA0E061E611E6918BF4FF45F
:1008EC00803946F004061E6112F0400F0CBF4FF029
:1008FC0001084FF4803812F0800F1A6918BF4FF4BA
:10090C00803E42F480221A611A6908BF4FF0010E32
:10091C000A431A611969A4F1080641F0040119612E
:10092C001969324641F480211961196941EA0A01B9
:10093C001961196941F004011961196941F48021A7
:10094C001961196941EA09011961196941F0040138
:10095C001961196941F480211961196941EA080189
:10096C001961196941F004011961196941F4802177
:10097C001961196941EA0E011961196941F0040103
:10098C001961196941F48021196112F8011F1F695D
:10099C0001F00101090100FA01F1394319611969EA
:1009AC00944241F004011961196941F480211961E3
:1009BC0011781F69C1F340014FEA011100FA01F1EE
:1009CC0041EA07011961196941F0040119611969BA
:1009DC0041F48021196111781F69C1F380014FEA3C
:1009EC00011100FA01F141EA07011961196941F09D
:1009FC0004011961196941F48021196111781F6989
:100A0C00C1F3C0014FEA011100FA01F141EA0701FB
:100A1C001961196941F004011961196941F48021C6
:100A2C00196111781F6901F0100100FA01F141EA16
:100A3C0007011961196941F004011961196941F43F
:100A4C008021196111781F69C1F340114FEA01111E
:100A5C0000FA01F141EA07011961196941F0040139
:100A6C001961196941F48021196111781F69C1F369
:100A7C0080114FEA011100FA01F141EA07011961F5
:100A8C00196941F004011961196941F48021196156
:100A9C0011781F694FEAD1114FEA011100FA01F1E7
:100AAC0041EA07011961196941F0040119617FF4E8
:100ABC0068AF1A69B34542F00202344605F1FF35BE
:100ACC001A617FF4BBAEBDE8F08F00BF0008014097
:100ADC0081667047806E704790F84800704700BF81
:100AEC004022002110B50446083004F00DFE01230D
:100AFC0084F8493001F022FB264960664B6894F873
:100B0C00482043F020034B60072A0BD8DFE802F0A3
:100B1C00161E252D343C040B002264211E4BA166AD
:100B2C00C4E9003210BD00221A49A2664B681B486A
:100B3C0023F020034B60C4E9000210BD00224FF4E7
:100B4C008271174BA166C4E9003210BD0022DC2172
:100B5C00144BA166C4E9003210BD00224FF4AF71F2
:100B6C00114BA166C4E9003210BD0022C8210F4B05
:100B7C00A166C4E9003210BD00224FF496710C4BF3
:100B8C00A166C4E9003210BD00220A4BC4E9003250
:100B9C0010BD00BF00280140ED0100085D010008F8
:100BAC006D05000831160008290D0008C10D00085C
:100BBC00410400081108000890F848300133DBB2FA
:100BCC00072B88BF002380F84830704790F84830D6
:100BDC00013BDBB2072B88BF072380F848307047F6
:100BEC00C16580F8602070472DE9F04F8BB09DF8FF
:100BFC005040002C00F08F8080468B464FF0800ECA
:100C0C001046591E2144561EC3F10705264408EB15
:100C1C00C505C9B20BF1FF3CA444C1F10701F6B202
:100C2C00039508EBC1015FFA8CFC4EFA02F71444F1
:100C3C004EFA06F6039A1B1A069101EB0C0A01EB0D
:100C4C000B0976B2E1B27FB20893ABEB0003CDF89F
:100C5C001480CDF808C0049102EB0C0802EB0B0ECB
:100C6C00079309960197802343FA00F19EF8083008
:100C7C0049B2079A0B438EF808308218039BD2B204
:100C8C009D18089B2C7A019EC3183443DBB2059E39
:100C9C00C3F1070306EBC303069E2C7203EB0B0494
:100CAC0094F808C03244019E013046EA0C0C84F8DA
:100CBC0008C09AF808C0029E41EA0C0C8AF808C0D9
:100CCC0092F808C03344099EC0B246EA0C0C82F874
:100CDC0008C093F808C046EA0C0C83F808C098F8D2
:100CEC0008C041EA0C0C88F808C099F808C041EA21
:100CFC000C0189F80810297A31432972117A019D67
:100D0C00294311721A7A2A431A72237A33432372B3
:100D1C00049B9842A7D10BB0BDE8F08F30B590F88A
:100D2C004930044683B073B14FF4AF7340228366ED
:100D3C000021083004F0E8FC4FF481720023A4F881
:100D4C00562084F8493001F0F9F9D4E91923801AB6
:100D5C00984201D803B030BD01F0F0F994F8573047
:100D6C0094F8565060664BB10235EDB2082D84F8FC
:100D7C0056500DD1002384F8573009E0023DEDB2F6
:100D8C00022D08BF012384F8565008BF84F8573051
:100D9C004022002104F1080004F0B6FC6B08C3F1FA
:100DAC000403DBB220461A4619460095FFF71CFFD8
:100DBC0003B030BD30B590F84930044683B013B35E
:100DCC0000254022294680F84950083004F09CFC4C
:100DDC000121284600F0B8FDC0EBC000012184F8C9
:100DEC005800284600F0B0FDC0EBC00084F8590054
:100DFC000121284600F0A8FD0823C0EBC00084F8B0
:100E0C005A00A4F8563001F099F9D4E91923801A44
:100E1C00984201D803B030BD01F090F940226066D1
:100E2C00002104F1080004F06FFCA36D33F07F4344
:100E3C004BD0684A934255D0072B7CD0B3F5E06F6A
:100E4C0000F08980B3F5E02F00F0958040F2077236
:100E5C00934200F09880604A934200F0A780B3F16F
:100E6C00071F55D094F857301BB394F85630013304
:100E7C00DBB2082B84F85630CCD100250121284652
:100E8C0084F8575000F060FDC0EBC000012184F8DD
:100E9C005800284600F058FDC0EBC00084F85900FB
:100EAC000121284600F050FDC0EBC00084F85A0028
:100EBC00B0E794F85630013BDBB2012B84F8563086
:100ECC0008BF84F8573003B030BD94F8562094F81E
:100EDC005A300092204694F8592094F85810FFF795
:100EEC0083FEBFE794F85A3094F8592094F85810C0
:100EFC0094F856000133013201311B1A121A091AE7
:100F0C000090DBB22046D2B2C9B2FFF76DFEA9E762
:100F1C0094F85A3094F8581094F856200133013153
:100F2C009B1A891A0092204694F85920DBB2C9B258
:100F3C00FFF75AFE96E794F8581094F856300131A2
:100F4C000093C91A204694F85A3094F85920C9B223
:100F5C00FFF74AFE86E794F8592094F85630013290
:100F6C000093D21A204694F85A3094F85810D2B202
:100F7C00FFF73AFE76E794F85A3094F8562001338E
:100F8C009B1ADBB2A5E794F8592094F8581094F802
:100F9C00563001320131D21AC91A0093204694F806
:100FAC005A30D2B2C9B2FFF71FFE5BE794F85A3041
:100FBC0094F8592094F85610013301325B1A521AE6
:100FCC000091204694F85810DBB2D2B2FFF70CFE19
:100FDC0048E700BF07070700000707002DE9F041AD
:100FEC000446052900F21881DFE811F05001970141
:100FFC000600DE01E4021801007A217C227E94F8BE
:10100C0020304010491052105B1094F8286094F86E
:10101C0030502072217494F8380094F840102276E5
:10102C0084F82030627A637C76106D104010491081
:10103C0052105B1084F8286084F83050667E94F867
:10104C00215084F8380084F8401094F8290094F862
:10105C0031106272637494F8392094F84130761030
:10106C006D104010491052105B10667684F82150B8
:10107C0084F8311084F8392084F8413084F8290040
:10108C00A07AA17CA27E94F8223040104910521014
:10109C005B1094F82A6094F83250A072A17494F802
:1010AC003A0094F84210A27684F82230E27AE37C7B
:1010BC0076106D104010491052105B1084F82A60A5
:1010CC0084F83250E67E94F8235084F83A0084F881
:1010DC00421094F82B0094F83310E272E37494F8F5
:1010EC003B2094F8433076106D104010491052108C
:1010FC005B10E67684F8235084F8331084F83B2098
:10110C0084F8433084F82B00207B217D227F94F8D7
:10111C0024304010491052105B1094F82C6094F855
:10112C0034502073217594F83C0094F844102277C5
:10113C0084F82430627B637D76106D10401049106A
:10114C0052105B1084F82C6084F83450667F94F84D
:10115C00255084F83C0084F8441094F82D0094F841
:10116C0035106273637594F83D2094F84530761011
:10117C006D104010491052105B10667784F82550A2
:10118C0084F8351084F83D2084F8453084F82D001F
:10119C00A07BA17DA27F94F82630401049105210FC
:1011AC005B1094F82E6094F83650A073A17594F8E7
:1011BC003E0094F84610A27784F82630E27BE37D5B
:1011CC0076106D104010491052105B1084F82E6090
:1011DC0084F83650E67F94F8275084F83E0084F863
:1011EC00461094F82F0094F83710E273E37594F8D6
:1011FC003F2094F8473076106D1040104910521073
:10120C005B10E67784F8275084F82F0084F83710A9
:10121C0084F83F2084F84730BDE8F0810746064645
:10122C0005460146024657F838EF0346D7F804C086
:10123C00C0F840E0C0F844C04FF0000C56F8308FB6
:10124C00D6F804E0C0F83880C7F804E055F828EF69
:10125C006F68C0F830E0776050F8207F4668A7626E
:10126C006E6051F8186F4D682662456052F8105F39
:10127C005068A561486053F8080F596820615160A7
:10128C00C4F808C0C3F804C0BDE8F08100F108013F
:10129C000722093004F01EFA072204F1100104F1B0
:1012AC00110004F017FA072204F1180104F11900D7
:1012BC0004F010FA072204F1200104F1210004F0DB
:1012CC0009FA072204F1280104F1290004F002FABA
:1012DC00072204F1300104F1310004F0FBF907227C
:1012EC0004F1380104F1390004F0F4F9072204F197
:1012FC00400104F1410004F0EDF900232372237442
:10130C00237684F8203084F8283084F8303084F840
:10131C00383084F84030BDE8F08100F10901072233
:10132C00083004F0D7F9072204F1110104F1100080
:10133C0004F0D0F9072204F1190104F1180004F0AB
:10134C00C9F9072204F1210104F1200004F0C2F9CB
:10135C00072204F1290104F1280004F0BBF907224B
:10136C0004F1310104F1300004F0B4F9072204F166
:10137C00390104F1380004F0ADF9072204F1410100
:10138C0004F1400004F0A6F90023E373E375E3775E
:10139C0084F8273084F82F3084F8373084F83F30C5
:1013AC0084F84730BDE8F081007A217C227E94F8E5
:1013BC0020304000490052005B0094F8286094F8FB
:1013CC0030502072217494F8380094F84010227632
:1013DC0084F82030627A637C76006D00400049000E
:1013EC0052005B0084F8286084F83050667E94F8D4
:1013FC00215084F8380084F8401094F8290094F8AF
:10140C0031106272637494F8392094F8413076008C
:10141C006D004000490052005B00667684F8215054
:10142C0084F8311084F8392084F8413084F829008C
:10143C00A07AA17CA27E94F8223040004900520090
:10144C005B0094F82A6094F83250A072A17494F85E
:10145C003A0094F84210A27684F82230E27AE37CC7
:10146C0076006D004000490052005B0084F82A6051
:10147C0084F83250E67E94F8235084F83A0084F8CD
:10148C00421094F82B0094F83310E272E37494F841
:10149C003B2094F8433076006D0040004900520028
:1014AC005B00E67684F8235084F8331084F83B20F4
:1014BC0084F8433084F82B00207B217D227F94F824
:1014CC0024304000490052005B0094F82C6094F8E2
:1014DC0034502073217594F83C0094F84410227712
:1014EC0084F82430627B637D76006D0040004900F7
:1014FC0052005B0084F82C6084F83450667F94F8BA
:10150C00255084F83C0084F8441094F82D0094F88D
:10151C0035106273637594F83D2094F8453076006D
:10152C006D004000490052005B00667784F825503E
:10153C0084F8351084F83D2084F8453084F82D006B
:10154C00A07BA17DA27F94F8263040004900520078
:10155C005B0094F82E6094F83650A073A17594F843
:10156C003E0094F84610A27784F82630E27BE37DA7
:10157C0076006D004000490052005B0084F82E603C
:10158C0084F83650E67F94F8275084F83E0084F8AF
:10159C00461094F82F0094F83710E273E37594F822
:1015AC003F2094F8473076006D004000490052000F
:1015BC005B0026E60746064605460146024657F8F6
:1015CC0010EF0346D7F804C0C0F808E0C0F80CC010
:1015DC004FF0000C56F8188FD6F804E0C0F81080C5
:1015EC00C7F804E055F820EF6F68C0F818E0776092
:1015FC0050F8287F466827626E6051F8306F4D684E
:10160C00A662456052F8385F50682563486053F80D
:10161C00400F5968A0635160C4F840C0C3F804C0BF
:10162C00BDE8F0812DE9F04F90F84930054683B0C4
:10163C00002B49D000F1080640223046002104F06E
:10164C0063F80221002000F07FF9012104460020FC
:10165C0000F07AF980226FF00701C0EBC00033462E
:10166C00C6B2C6EB467993464FEAC9093241491BCB
:10167C0050B24FF0FF0AE4B285F8546009F1380912
:10168C00AA19019105F1100704E0002C50D0013388
:10169C00BB4208D0012C21D0022CF6D103F809A0B2
:1016AC000133BB42F6D1012C00F0AD80022C00F0CE
:1016BC00A180002C00F0A380002385F8553085F81C
:1016CC00493000F03BFD686600F038FDD5E9192380
:1016DC00801A984261D803B0BDE8F08F93F838C0F7
:1016EC0093F8301040EA0C0C014393F828E083F88F
:1016FC0038C083F8301093F820C0197E40EA0E0EE3
:10170C0040EA0C0C014383F828E083F820C093F8DE
:10171C0010E093F808C01976197840EA0E0E40EAEA
:10172C000C0C014383F810E083F808C01970AEE785
:10173C00019992F840C0194492F838804BFA01F1A3
:10174C0049B241EA0C0C41EA080892F830E082F800
:10175C0040C082F8388092F828C092F8208041EA84
:10176C000E0E41EA0C0C41EA080882F830E082F8CF
:10177C0028C092F818E092F810C082F8208092F8F5
:10178C00088041EA0E0E41EA0C0C41EA080182F88D
:10179C0018E082F810C0117279E700F0CFFC95F8D0
:1017AC00531068662846FFF719FC95F8532095F8F6
:1017BC005430D1070CD40133DBB2072B85F85430ED
:1017CC0089D195F855307BB3012385F8493082E7F0
:1017DC00013BDBB285F85430002B7FF47CAF95F8DD
:1017EC005530002BF0D10123013A85F8532085F8B0
:1017FC00553070E766B9042385F853305CE75EB961
:10180C0085F8536058E75EB9022385F8533053E7E7
:10181C00052385F853304FE7012385F853304BE708
:10182C00032385F8533047E701231A4485F85320E6
:10183C0085F855304FE700BF2039C9B27D29044BDC
:10184C0088BF4139C2F1070203EBC101885C7047C4
:10185C00B068000810B50C4C2388DA070AD45B0773
:10186C0000D410BD0948FFF7B1F9238823F0040315
:10187C00238010BD0548FFF79FF9238823F001034F
:10188C009BB22380EBE700BFF4000020F80000209F
:10189C0010B52B4C238899071DD42A48FFF71CF947
:1018AC000728238827D0DA0629D45B0600D410BD7C
:1018BC002448FFF70FF9A0F10A0109B22148FFF7FC
:1018CC0007F92048FFF706F9002833DB238823F0BB
:1018DC004003238010BD1B48FFF702F91948FFF79E
:1018EC00FBF82388174823F002032380FFF7F4F852
:1018FC0007282388D7D123F05003238010BD11482B
:10190C00FFF7E8F800F10A0109B20E48FFF7E0F81A
:10191C000C48FFF7DFF8B0F57A7F05DC238823F05D
:10192C0010039BB22380C0E74FF47A710548FFF790
:10193C00CFF8F3E700210348FFF7CAF8C6E700BF6A
:10194C00F4000020F800002038B505460C4603F0E2
:10195C0011FF611B013190FBF1F303FB11002844D3
:10196C0038BD00BF0E4A036810B5934203D00D4A30
:10197C0093420BD010BD04460B4800F039FE4FF0DB
:10198C00804223681064074A9342F3D1074800F061
:10199C002FFE03F0C1FEBDE81040044800F0B0BCBF
:1019AC00002801400024014098010020680100201B
:1019BC000D4B984200D0704730B5044683B00B48AD
:1019CC00FFF78AF805464FF47A730DF107010122EF
:1019DC0020468DF8075003F070FA20460222044985
:1019EC0003F0FDFA03B030BD58020020F8000020CF
:1019FC00F4000020F0B50121002402254FF48032C0
:101A0C004FF4E01301264FF4803795B00AA8CDE9C6
:101A1C000A67CDE911520E9113930F260227CDE9D7
:101A2C000F44CDE90544CDE90744CDE901440D94BB
:101A3C00049400940C94039401F0B8FC00224FF42D
:101A4C008063294604A8CDE90623CDE904670894F0
:101A5C0001F02CFF4FF4004368460095029302F00E
:101A6C00BFF815B0F0BD00BF00242DE9804893B03D
:101A7C0000F00CFBFFF7BEFFCDE90A44CDE90C44A6
:101A8C00984B224699694FF0070841F02001996163
:101A9C009869072100F02000019001989D699248F7
:101AAC0045F004059D619D694FF0010905F00405A1
:101ABC000295029D9D69012645F008059D619B6973
:101ACC00DFF850A203F008030393039B01F056FCCC
:101ADC00002202230AA98448CDE90A89CDE90C2306
:101AEC0001F00CFA4FF46023804A5046CAE90024F6
:101AFC00CAF808408AF80C408AF81440CAF81C301E
:101B0C00CAF81060CDE90A440C9400F021FB1022B5
:101B1C00012350460AA9CDE90A230C9400F040FE9B
:101B2C004FF6E85240F2CF214FF480574FF0200887
:101B3C004FF00009DFF8E0B16D4B5846CBF80030A0
:101B4C00CBF80C20CDE90A44CDE90C44CDE9064490
:101B5C00CBF80840CBF81040CBF81840CBF8041069
:101B6C0002F0B8F90AA958460A9702F053FD06A9E3
:101B7C005846CDE9068903F0E3F840F6FE724FF0C3
:101B8C0080414FF000084FF000095A4DCDE9064452
:101B9C002846EA60C5E901642C61AC612960CDE995
:101BAC000844CDE90A44CDE90C44CDE90E44049433
:101BBC001094059402F08EF906A92846069702F0B7
:101BCC0029FD284602F020FACDE904894FF070086F
:101BDC004FF00009284604A903F0B2F80C220AA918
:101BEC002846CDE90A890C940E9402F055FC28463F
:101BFC0000F08CF94FF400224FF009084FF0010966
:101C0C003D4F3E493846FA61BC603C733C757C6084
:101C1C003E613960CDE90A440C9400F099FA3846DB
:101C2C000AA9CDE90A890C944FF00C0800F0B8FD14
:101C3C004FF4E132DFF8E49031494846C9E900122B
:101C4C00C9E90244C9E90644C9F81040C9F814802E
:101C5C0003F0E6F8584602F08DF94146284602F0AA
:101C6C002BFA384600F020FF384600F00BFC5046AB
:101C7C0000F008FC1E4B02225E612249484603F02C
:101C8C00AEF92148FEF75CFADFF894A0C2B21E4907
:101C9C005046FEF7A5FF56461A4D1C4F1C4CDFF85C
:101CAC008490DFF884802B8813F4807F23F4807376
:101CBC000CD03A783046012A14BF4946414682F08E
:101CCC0001022B8021603A70FEF70AFF23689847C7
:101CDC00DAE900300AEB600098473046FEF7A2FDC7
:101CEC00E1E700BF00100240000801400024014061
:101CFC0000040040C8010020980100200028014089
:101D0C0000480040F400002004000020F6000020F1
:101D1C000000002068010020100200205802002062
:101D2C00F8000020611800089D180008F0B5002785
:101D3C0040F2051E4FF4967C0E4E0F4D06F1080432
:101D4C000FCD0FC40FCD0FC40FCD0FC495E80F00EE
:101D5C000A4DC6E9005784E80F00A6F8547086F8BF
:101D6C005770A6F86C7086F86E70A6F848E0C6F846
:101D7C0068C0F0BDF8000020506800081108000889
:101D8C000E4B82B09A690E4942F001029A619A692F
:101D9C0002F001020092009ADA6942F08052DA6194
:101DAC00DB6903F080530193019B4B6823F0E063E4
:101DBC0043F000734B6002B0704700BF001002404C
:101DCC0000000140D0B500240368234A88B0934238
:101DDC00CDE90444CDE9064404D0204A934215D001
:101DEC0008B0D0BD1E4B22469869214640F40070C5
:101DFC0098619B69122003F400730193019B00F01E
:101E0C00D0FF122000F0E9FF08B0D0BD0226032756
:101E1C00134B04A99A69134842F480629A619A6937
:101E2C0002F480620292029A9A6942F008029A6164
:101E3C009B69CDE9046703F008030393039B01F04E
:101E4C005DF822462146122000F0ABFF122000F074
:101E5C00C4FF08B0D0BD00BF0024014000280140E1
:101E6C0000100240000C01400C4A0368934203D05E
:101E7C000B4A934207D0704702F56C42936923F4E6
:101E8C0000739361704702F568429369022123F451
:101E9C0080630448936101F0B5B900BF0024014090
:101EAC0000280140000C014010B5036882B0B3F16A
:101EBC00804F04D0134A93420ED002B010BD03F5EC
:101ECC000433DA6942F00102DA61DB6903F00103E1
:101EDC000093009B02B010BD00220B4B1146DC6935
:101EEC001D2044F00204DC61DB6903F00203019362
:101EFC00019B00F056FF1D2002B0BDE8104000F021
:101F0C006CBF00BF00040040001002400023D0B59D
:101F1C00026886B0B2F1804FCDE90233CDE90433CB
:101F2C0001D006B0D0BD08260227022403F180435D
:101F3C0003F504339A69084842F004029A619B69DC
:101F4C0002A903F004030193CDE90267019B0594F8
:101F5C0000F0D4FF06B0D0BD0008014030B500241D
:101F6C0002681E4B87B09A42CDE90244CDE9044485
:101F7C0001D007B030BD4FF480600221032503F57A
:101F8C00E433DA6942F48022DA61DA6902F48022FD
:101F9C000092009A9A6942F008029A619B69CDE915
:101FAC00020103F00803019302A90D48019B05955A
:101FBC0000F0A4FF00234FF4006202A90848CDE909
:101FCC000223049400F09AFF22462146272000F0B9
:101FDC00E8FE272000F001FF07B030BD00480040AC
:101FEC00000C0140704700BFFEE700BFFEE700BFDA
:101FFC00FEE700BFFEE700BF704700BF704700BFA1
:10200C00704700BF00F088B808B5044800F0FCFA2F
:10201C00BDE80840024800F0F7BA00BF6801002094
:10202C0098010020014802F02FB900BF10020020D7
:10203C00014803F029B800BF58020020704700BFC8
:10204C00002103E00B4B5B58435004310A480B4B07
:10205C0042189A42F6D30A4A02E0002342F8043BA3
:10206C00084B9A42F9D3FFF7E9FF03F00FFBFFF798
:10207C00FBFC7047186D000800000020D800002001
:10208C00D8000020B8020020FEE7000080B500AFA9
:10209C00084B1B68074A43F010031360032000F041
:1020AC0075FE002000F008F8FFF76AFE00231846C2
:1020BC0080BD00BF0020024080B582B000AF7860C8
:1020CC00124B1A68124B1B7819464FF47A73B3FBF8
:1020DC00F1F3B2FBF3F3184600F08DFE0346002B30
:1020EC0001D001230EE07B680F2B0AD800227968FF
:1020FC004FF0FF3000F055FE064A7B68136000235A
:10210C0000E0012318460837BD4680BD680000205A
:10211C00700000206C00002080B400AF054B1B78D1
:10212C001A46054B1B681344034A136000BFBD4697
:10213C0080BC704770000020A402002080B400AF67
:10214C00024B1B681846BD4680BC7047A402002099
:10215C0080B586B000AF78600023FB7500233B612F
:10216C000023BB600023FB607B68002B01D10123A3
:10217C00BEE07B689B68002B7B689B6A002B09D1B7
:10218C007B680022DA627B68002283F8242078685E
:10219C00FFF718FE786800F04DFC0346FB757B6872
:1021AC009B6A03F01003002B40F09980FB7D002B01
:1021BC0040F095807B689B6A23F4885323F00203DC
:1021CC0043F002027B689A627B685A687B68DB6921
:1021DC001A437B681B7B5B001343BA681343BB60D9
:1021EC007B689B68B3F5807F03D07B689B68012B71
:1021FC0002D14FF4807300E000233A6913433B6132
:10220C007B681B7D012B19D17B681B7B002B09D1B3
:10221C007B689B69013B5A033B69134343F400639E
:10222C003B610BE07B689B6A43F020027B689A62FF
:10223C007B68DB6A43F001027B68DA627B681B68AF
:10224C005B6823F469417B681B683A690A435A60EE
:10225C007B681B689A68284B13407A681268B968C7
:10226C000B4393607B689B68B3F5807F03D07B68DE
:10227C009B68012B04D17B681B69013B1B05FB6030
:10228C007B681B68DB6A23F470017B681B68FA6847
:10229C000A43DA627B681B689A68184B1340BA6869
:1022AC009A420BD17B680022DA627B689B6A23F02E
:1022BC00030343F001027B689A6218E07B689B6A17
:1022CC0023F0120343F010027B689A627B68DB6A8E
:1022DC0043F001027B68DA620123FB7507E07B683F
:1022EC009B6A43F010027B689A620123FB75FB7DAD
:1022FC0018461837BD4680BDFDF7E1FFFE0E1FFFE7
:10230C0080B584B000AF78600023FB737B68002B32
:10231C0001D10123ADE07B689B6A43F002027B682C
:10232C009A62786800F086FB0346FB73FB7B002BFC
:10233C0040F09A807B681B686FF01F021A607B6804
:10234C001B6859687B681A684C4B0B4053607B6860
:10235C001B6899687B681A68494B0B4093607B68D3
:10236C001B68DA687B681B6802F07F42DA607B6866
:10237C001B681A697B681B6802F040421A617B6813
:10238C001B685B697A68126823F47F6323F00F0380
:10239C0053617B681B689B697A68126823F47F63BE
:1023AC0023F00F0393617B681B68DB697A68126802
:1023BC0023F47F6323F00F03D3617B681B681B6AD4
:1023CC007A68126823F47F6323F00F0313627B682F
:1023DC001B685B6A7A68126823F47F6323F00F032F
:1023EC0053627B681B689B6A7A68126823F47F636C
:1023FC0023F00F0393627B681B68DA6A7B681B68A7
:10240C0002F07F42DA627B681B68DA6A7B681B68C1
:10241C0002F07F42DA627B681B681A6B7B681B6870
:10242C0002F040421A637B681B685A6B7B681B681E
:10243C0002F040425A637B681B689B6B7A68126897
:10244C009B0D9B0593637B681B689B6B7A6812687A
:10245C009B0D9B0593637868FFF706FD7B68002254
:10246C00DA627B6800229A627B68002283F824205F
:10247C00FB7B18461037BD4680BD00BF00003FFFF8
:10248C00F00601FF80B584B000AF78600023FB73C9
:10249C007B6893F82430012B01D10223A0E07B68E8
:1024AC00012283F82420786800F072FA0346FB734B
:1024BC00FB7B002B40F08F807B689B6A23F470635E
:1024CC0023F0010343F480727B689A627B681B687B
:1024DC00454A934205D1454B5B6803F47023002BAE
:1024EC0015D17B689B6A23F480127B689A627B68A7
:1024FC001B685B6803F48063002B26D07B689B6AA7
:10250C0023F4405343F480527B689A621DE07B684D
:10251C009B6A43F480127B689A627B681B68334A1F
:10252C00934204D07B681B682F4A93420DD12F4BEA
:10253C005B6803F48063002B07D07B689B6A23F4F1
:10254C00405343F480527B689A627B689B6A03F425
:10255C008053002B06D07B68DB6A23F006027B6875
:10256C00DA6202E07B680022DA627B68002283F880
:10257C0024207B681B686FF002021A607B681B6862
:10258C005A687B681B6842F020025A607B681B68A3
:10259C009B6803F46023B3F5602F13D17B681B6831
:1025AC00114A934205D1114B5B6803F47023002B45
:1025BC0008D17B681B689A687B681B6842F4A00290
:1025CC009A600CE07B681B689A687B681B6842F415
:1025DC0080129A6003E07B68002283F82420FB7B46
:1025EC0018461037BD4680BD00280140002401402C
:1025FC0080B483B000AF78607B681B68DB6C1846D6
:10260C000C37BD4680BC704780B582B000AF786097
:10261C007B681B685B6803F02003202B40D17B6830
:10262C001B681B6803F00203022B39D17B689B6A81
:10263C0003F01003002B05D17B689B6A43F40072F6
:10264C007B689A627B681B689B6803F46023B3F514
:10265C00602F1DD17B681B7B002B19D17B681B68FD
:10266C005A687B681B6822F020025A607B689B6A60
:10267C0023F480727B689A627B689B6A03F48053B4
:10268C00002B05D17B689B6A43F001027B689A6240
:10269C007868FFF767F97B681B686FF012021A60A5
:1026AC007B681B685B6803F08003802B4FD17B68D1
:1026BC001B681B6803F00403042B48D17B689B6ADE
:1026CC0003F01003002B05D17B689B6A43F4005286
:1026DC007B689A627B681B689B6803F4E043B3F5E4
:1026EC00E04F12D07B681B685B6803F48063002B9F
:1026FC0025D17B681B689B6803F46023B3F5602FBE
:10270C001DD17B681B7B002B19D17B681B685A6819
:10271C007B681B6822F080025A607B689B6A23F4FA
:10272C0080527B689A627B689B6A03F48073002BEF
:10273C0005D17B689B6A43F001027B689A627868DA
:10274C0000F04EFA7B681B686FF00C021A607B6815
:10275C001B685B6803F04003402B14D17B681B683B
:10276C001B6803F00103012B0DD17B689B6A43F4BA
:10277C0080327B689A62786800F009F87B681B6885
:10278C006FF001021A6000BF0837BD4680BD80B4EF
:10279C0083B000AF786000BF0C37BD4680BC70477B
:1027AC0080B485B000AF786039600023FB730023E0
:1027BC00BB607B6893F82430012B01D10223DCE051
:1027CC007B68012283F824203B685B68062B1CD8AD
:1027DC007B681B68596B3B685A6813469B00134413
:1027EC00053B1F2202FA03F3DB4319403B681868D0
:1027FC003B685A6813469B001344053B00FA03F2EE
:10280C007B681B680A435A633CE03B685B680C2B93
:10281C001CD87B681B68196B3B685A6813469B0075
:10282C001344233B1F2202FA03F3DB4319403B689A
:10283C0018683B685A6813469B001344233B00FA04
:10284C0003F27B681B680A431A631BE07B681B68F6
:10285C00D96A3B685A6813469B001344413B1F22BC
:10286C0002FA03F3DB4319403B6818683B685A686B
:10287C0013469B001344413B00FA03F27B681B6830
:10288C000A43DA623B681B68092B1CD97B681B68FE
:10289C00D9683B681A6813465B0013441E3B072239
:1028AC0002FA03F3DB4319403B6898683B681A68EB
:1028BC0013465B0013441E3B00FA03F27B681B6853
:1028CC000A43DA6019E07B681B6819693B681A686F
:1028DC0013465B001344072202FA03F3DB4319404F
:1028EC003B6898683B681A6813465B00134400FA0F
:1028FC0003F27B681B680A431A613B681B68102B48
:10290C0003D03B681B68112B32D17B681B681D4AB6
:10291C00934225D17B681B689B6803F40003002B52
:10292C0026D17B681B689A687B681B6842F400029E
:10293C009A603B681B68102B1AD1134B1B68134A07
:10294C00A2FB03239A0C13469B0013445B00BB6051
:10295C0002E0BB68013BBB60BB68002BF9D107E010
:10296C007B689B6A43F020027B689A620123FB73AD
:10297C007B68002283F82420FB7B18461437BD4665
:10298C0080BC7047002401406800002083DE1B439C
:10299C0080B584B000AF78600023FB600023BB607F
:1029AC007B681B689B6803F00103012B39D07B68A3
:1029BC001B689A687B681B6842F001029A601B4B8B
:1029CC001B681B4AA2FB03239B0CBB6002E0BB6889
:1029DC00013BBB60BB68002BF9D1FFF7AFFBF86084
:1029EC0018E0FFF7ABFB0246FB68D31A022B11D998
:1029FC007B689B6A43F010027B689A627B68DB6A97
:102A0C0043F001027B68DA627B68002283F82420A1
:102A1C00012307E07B681B689B6803F00103012B13
:102A2C00DFD1002318461037BD4680BD680000205A
:102A3C0083DE1B4380B584B000AF78600023FB605D
:102A4C007B681B689B6803F00103012B27D17B6813
:102A5C001B689A687B681B6822F001029A60FFF77A
:102A6C006DFBF86014E0FFF769FB0246FB68D31AB4
:102A7C00022B0DD97B689B6A43F010027B689A622B
:102A8C007B68DB6A43F001027B68DA62012307E0B2
:102A9C007B681B689B6803F00103012BE3D00023C8
:102AAC0018461037BD4680BD90B587B000AF786032
:102ABC000023FB750023FB607B6893F82430012B0B
:102ACC0001D1022386E07B68012283F824207868F8
:102ADC00FFF7B0FF0346FB75FB7D002B75D17B68C0
:102AEC009B6A23F4885323F0020343F002027B68B1
:102AFC009A623A4B1C68022001F028F90346B4FB99
:102B0C00F3F35B00FB6002E0FB68013BFB60FB68DE
:102B1C00002BF9D17868FFF73BFF7B681B689A683C
:102B2C007B681B6842F008029A60FFF707FB38616C
:102B3C0014E0FFF703FB02463B69D31A0A2B0DD9AD
:102B4C007B689B6A23F0120343F010027B689A6245
:102B5C007B68002283F8242001233BE07B681B6800
:102B6C009B6803F00803002BE3D17B681B689A6811
:102B7C007B681B6842F004029A60FFF7DFFA386149
:102B8C0014E0FFF7DBFA02463B69D31A0A2B0DD986
:102B9C007B689B6A23F0120343F010027B689A62F5
:102BAC007B68002283F82420012313E07B681B68D8
:102BBC009B6803F00403002BE3D17B689B6A23F032
:102BCC00030343F001027B689A627B68002283F85E
:102BDC002420FB7D18461C37BD4690BD68000020A4
:102BEC0080B483B000AF786000BF0C37BD4680BCAA
:102BFC007047000080B485B000AF78607B6803F04C
:102C0C000703FB600C4BDB68BB60BA684FF6FF0335
:102C1C001340BB60FB681A02BB68134343F0BF63ED
:102C2C0043F40033BB60044ABB68D36000BF143765
:102C3C00BD4680BC704700BF00ED00E080B400AF23
:102C4C00044BDB681B0A03F007031846BD4680BC27
:102C5C00704700BF00ED00E080B483B000AF0346C6
:102C6C00FB7197F90730002B0BDBFB7903F01F028C
:102C7C00064997F907305B09012000FA02F241F886
:102C8C00232000BF0C37BD4680BC704700E100E03C
:102C9C0080B483B000AF03463960FB7197F90730FD
:102CAC00002B0ADB3B68DAB20C4997F907301201AA
:102CBC00D2B20B4483F800230AE03B68DAB208492D
:102CCC00FB7903F00F03043B1201D2B20B441A76CA
:102CDC0000BF0C37BD4680BC704700BF00E100E070
:102CEC0000ED00E080B489B000AFF860B9607A60A4
:102CFC00FB6803F00703FB61FB69C3F10703042BBB
:102D0C0028BF0423BB61FB690433062B02D9FB6982
:102D1C00033B00E000237B614FF0FF32BB6902FAFA
:102D2C0003F3DA43BB681A407B699A404FF0FF31DA
:102D3C007B6901FA03F3D9437B680B4013431846B4
:102D4C002437BD4680BC704780B582B000AF786038
:102D5C007B68013BB3F1807F01D301230FE00A4A6A
:102D6C007B68013B53600F214FF0FF30FFF790FF62
:102D7C00054B00229A60044B07221A600023184668
:102D8C000837BD4680BD00BF10E000E080B582B0C2
:102D9C0000AF78607868FFF72DFF00BF0837BD469D
:102DAC0080BD80B586B000AF0346B9607A60FB7316
:102DBC0000237B61FFF742FF78617A68B968786914
:102DCC00FFF790FF024697F90F3011461846FFF7B0
:102DDC005FFF00BF1837BD4680BD80B582B000AF25
:102DEC000346FB7197F907301846FFF735FF00BF14
:102DFC000837BD4680BD80B582B000AF786078687A
:102E0C00FFF7A2FF034618460837BD4680BD0000F9
:102E1C0080B584B000AF78600023FB737B6893F8B7
:102E2C002130022B05D07B6804229A630123FB73AB
:102E3C0051E07B681B681A687B681B6822F00E02E5
:102E4C001A607B681B681A687B681B6822F0010299
:102E5C001A607B681B68224A934229D07B681B68E6
:102E6C00204A934222D07B681B681F4A93421AD097
:102E7C007B681B681D4A934212D07B681B681C4AF6
:102E8C0093420AD07B681B681A4A934202D14FF4D2
:102E9C0080130EE04FF080730BE04FF4803308E0AA
:102EAC004FF4805305E04FF4807302E0102300E0F0
:102EBC000123114A53607B68012283F821207B682F
:102ECC00002283F820207B685B6B002B03D07B688F
:102EDC005B6B78689847FB7B18461037BD4680BD06
:102EEC00080002401C000240300002404400024036
:102EFC00580002406C0002400000024080B48BB0CD
:102F0C0000AF7860396000237B6200233B6269E18B
:102F1C0001227B6A02FA03F3FB613B681B68FA69C6
:102F2C001340BB61BA69FB699A4240F058813B6817
:102F3C005B689A4A93425ED0984A934275D8984AF5
:102F4C00934258D0964A93426FD8964A934252D0A5
:102F5C00944A934269D8944A93424CD0924A9342F1
:102F6C0063D8924A934246D0904A93425DD8122B32
:102F7C002AD8122B59D801A252F823F0033000089A
:102F8C00DD2F0008EF2F0008313000083730000823
:102F9C003730000837300008373000083730000869
:102FAC003730000837300008373000083730000859
:102FBC003730000837300008373000083730000849
:102FCC00E52F0008F92F0008794A934213D02CE022
:102FDC003B68DB683B6229E03B68DB6804333B629F
:102FEC0024E03B68DB6808333B621FE03B68DB682E
:102FFC000C333B621AE03B689B68002B02D1042324
:10300C003B6213E03B689B68012B05D108233B62B4
:10301C007B68FA691A6109E008233B627B68FA69EC
:10302C005A6103E000233B6200E000BFBB69FF2B49
:10303C0001D87B6801E07B6804337B61BB69FF2BA3
:10304C0002D87B6A9B0002E07B6A083B9B003B61D9
:10305C007B691A680F213B6901FA03F3DB431A40C1
:10306C00396A3B6901FA03F31A437B691A603B68BE
:10307C005B6803F08053002B00F0B1804D4B9B69D3
:10308C004C4A43F0010393614A4B9B6903F00103E3
:10309C00BB60BB68484A7B6A9B08023352F82330FA
:1030AC00FB607B6A03F003039B000F2202FA03F31D
:1030BC00DB43FA681340FB607B68404A934213D0B1
:1030CC007B683F4A93420DD07B683E4A934207D0BF
:1030DC007B683D4A934201D1032306E0042304E0BC
:1030EC00022302E0012300E000237A6A02F00302CB
:1030FC0092009340FA681343FB602F497B6A9B084C
:10310C000233FA6841F823203B685B6803F4803390
:10311C00002B06D02D4B1A682C49BB6913430B604E
:10312C0006E02A4B1A68BB69DB43284913400B6045
:10313C003B685B6803F40033002B06D0234B5A68C2
:10314C002249BB6913434B6006E0204B5A68BB69AC
:10315C00DB431E4913404B603B685B6803F48013F0
:10316C00002B06D0194B9A681849BB6913438B6026
:10317C0006E0164B9A68BB69DB43144913408B601D
:10318C003B685B6803F40013002B21D00F4BDA680B
:10319C000E49BB691343CB6021E000BF0000321025
:1031AC00000031100000221000002110000012104D
:1031BC000000111000100240000001400008014006
:1031CC00000C0140001001400014014000040140BB
:1031DC000B4BDA68BB69DB4309491340CB607B6A54
:1031EC0001337B623B681A687B6A22FA03F3002B7B
:1031FC007FF48EAE00BF00BF2C37BD4680BC70473D
:10320C000004014080B489B000AF786039600023BD
:10321C00FB619AE00122FB6902FA03F33A6813405E
:10322C00BB61BB69002B00F08D804E4AFB699B088B
:10323C00023352F823307B61FB6903F003039B00DC
:10324C000F2202FA03F37A6913407B617B68464ACA
:10325C00934213D07B68454A93420DD07B68444A15
:10326C00934207D07B68434A934201D1032306E083
:10327C00042304E0022302E0012300E00023FA69A6
:10328C0002F00302920093407A699A4232D1FB69B0
:10329C0003F003039B000F2202FA03F37B61314A14
:1032AC00FB699B08023352F823107B69DA432D48E3
:1032BC00FB699B080A40023340F823202E4B1A6806
:1032CC00BB69DB432C4913400B602B4B5A68BB6921
:1032DC00DB43294913404B60274B9A68BB69DB439E
:1032EC00254913408B60244BDA68BB69DB432249C8
:1032FC001340CB60BB69FF2B01D87B6801E07B6876
:10330C0004333B61BB69FF2B02D8FB699B0002E0D5
:10331C00FB69083B9B00FB603B691A680F21FB684B
:10332C0001FA03F3DB431A400421FB6801FA03F3AF
:10333C001A433B691A607B68DA68BB69DB431A4045
:10334C007B68DA60FB690133FB613A68FB6922FA3E
:10335C0003F3002B7FF45EAF00BF00BF2437BD46E4
:10336C0080BC70470000014000080140000C014087
:10337C0000100140001401400004014080B483B0EF
:10338C0000AF78600B467B8013467B707B78002BFC
:10339C0003D07A887B681A6103E07B881A047B6807
:1033AC001A6100BF0C37BD4680BC704780B586B033
:1033BC0000AF78607B68002B01D101236CE27B6845
:1033CC001B6803F00103002B00F08780924B5B68B5
:1033DC0003F00C03042B0CD08F4B5B6803F00C0335
:1033EC00082B12D18C4B5B6803F48033B3F5803F10
:1033FC000BD1894B1B6803F40033002B6CD07B681A
:10340C005B68002B68D1012346E27B685B68B3F5EF
:10341C00803F06D1804B1B687F4A43F48033136096
:10342C002EE07B685B68002B0CD17B4B1B687A4AC7
:10343C0023F480331360784B1B68774A23F4802382
:10344C0013601DE07B685B68B3F5A02F0CD1724B49
:10345C001B68714A43F4802313606F4B1B686E4AE0
:10346C0043F4803313600BE06B4B1B686A4A23F404
:10347C0080331360684B1B68674A23F48023136006
:10348C007B685B68002B13D0FEF758FE386108E0B0
:10349C00FEF754FE02463B69D31A642B01D9032371
:1034AC00FAE15D4B1B6803F40033002BF0D014E001
:1034BC00FEF744FE386108E0FEF740FE02463B6929
:1034CC00D31A642B01D90323E6E1534B1B6803F495
:1034DC000033002BF0D100E000BF7B681B6803F0C9
:1034EC000203002B63D04C4B5B6803F00C03002BE6
:1034FC000BD0494B5B6803F00C03082B1CD1464BDB
:10350C005B6803F48033002B16D1434B1B6803F02C
:10351C000203002B05D07B681B69012B01D0012312
:10352C00BAE13D4B1B6823F0F8027B685B69DB005A
:10353C00394913430B603AE07B681B69002B20D0A0
:10354C00364B01221A60FEF7F9FD386108E0FEF7F0
:10355C00F5FD02463B69D31A022B01D903239BE1EB
:10356C002D4B1B6803F00203002BF0D02A4B1B6879
:10357C0023F0F8027B685B69DB00274913430B607F
:10358C0015E0264B00221A60FEF7D8FD386108E0E2
:10359C00FEF7D4FD02463B69D31A022B01D9032353
:1035AC007AE11D4B1B6803F00203002BF0D17B6802
:1035BC001B6803F00803002B3AD07B689B69002B37
:1035CC0019D0174B01221A60FEF7B8FD386108E0DC
:1035DC00FEF7B4FD02463B69D31A022B01D9032333
:1035EC005AE10D4B5B6A03F00203002BF0D0012073
:1035FC0000F0D8FA1CE00A4B00221A60FEF79EFD80
:10360C0038610FE0FEF79AFD02463B69D31A022B94
:10361C0008D9032340E100BF0010024000004242E1
:10362C00800442429E4B5B6A03F00203002BE9D1FB
:10363C007B681B6803F00403002B00F0A6800023BA
:10364C00FB75974BDB6903F08053002B0DD1944B2A
:10365C00DB69934A43F08053D361914BDB6903F0F0
:10366C008053BB60BB680123FB758E4B1B6803F456
:10367C008073002B18D18B4B1B688A4A43F48073E0
:10368C001360FEF75BFD386108E0FEF757FD02465C
:10369C003B69D31A642B01D90323FDE0814B1B68D2
:1036AC0003F48073002BF0D07B68DB68012B06D110
:1036BC007B4B1B6A7A4A43F0010313622DE07B6853
:1036CC00DB68002B0CD1764B1B6A754A23F0010387
:1036DC001362734B1B6A724A23F0040313621CE0DF
:1036EC007B68DB68052B0CD16D4B1B6A6C4A43F075
:1036FC00040313626A4B1B6A694A43F001031362A9
:10370C000BE0674B1B6A664A23F001031362644BA0
:10371C001B6A634A23F0040313627B68DB68002B8B
:10372C0015D0FEF70BFD38610AE0FEF707FD0246E7
:10373C003B69D31A41F28832934201D90323ABE09F
:10374C00574B1B6A03F00203002BEED014E0FEF77C
:10375C00F5FC38610AE0FEF7F1FC02463B69D31A2E
:10376C0041F28832934201D9032395E04C4B1B6AFA
:10377C0003F00203002BEED1FB7D012B05D1484B4E
:10378C00DB69474A23F08053D3617B68DB69002BEC
:10379C0000F08180424B5B6803F00C03082B61D076
:1037AC007B68DB69022B46D13F4B00221A60FEF787
:1037BC00C5FC386108E0FEF7C1FC02463B69D31A30
:1037CC00022B01D9032367E0354B1B6803F0007310
:1037DC00002BF0D17B681B6AB3F5803F08D1304BCE
:1037EC005B6823F400327B689B682D4913434B6064
:1037FC002B4B5B6823F474127B68196A7B685B6AD9
:10380C000B43274913434B60274B01221A60FEF7E9
:10381C0095FC386108E0FEF791FC02463B69D31A2F
:10382C00022B01D9032337E01D4B1B6803F00073F7
:10383C00002BF0D02FE01C4B00221A60FEF77EFC10
:10384C00386108E0FEF77AFC02463B69D31A022B7A
:10385C0001D9032320E0124B1B6803F00073002BEB
:10386C00F0D118E07B68DB69012B01D1012313E057
:10387C000B4B5B68FB60FB6803F480327B681B6A54
:10388C009A4206D1FB6803F470127B685B6A9A4219
:10389C0001D0012300E0002318461837BD4680BD37
:1038AC0000100240007000406000424280B584B0BD
:1038BC0000AF786039607B68002B01D10123D0E028
:1038CC006A4B1B6803F007033A689A4210D9674B9E
:1038DC001B6823F0070265493B6813430B60634B7D
:1038EC001B6803F007033A689A4201D00123B8E041
:1038FC007B681B6803F00203002B20D07B681B68DD
:10390C0003F00403002B05D0594B5B68584A43F471
:10391C00E06353607B681B6803F00803002B05D041
:10392C00534B5B68524A43F460535360504B5B6893
:10393C0023F0F0027B689B684D4913434B607B6816
:10394C001B6803F00103002B40D07B685B68012BE4
:10395C0007D1474B1B6803F40033002B15D101230F
:10396C007FE07B685B68022B07D1414B1B6803F03F
:10397C000073002B09D1012373E03D4B1B6803F04E
:10398C000203002B01D101236BE0394B5B6823F060
:10399C0003027B685B68364913434B60FEF7CEFB32
:1039AC00F8600AE0FEF7CAFB0246FB68D31A41F244
:1039BC008832934201D9032353E02D4B5B6803F00B
:1039CC000C027B685B689B009A42EBD1274B1B680F
:1039DC0003F007033A689A4210D2244B1B6823F079
:1039EC00070222493B6813430B60204B1B6803F012
:1039FC0007033A689A4201D0012332E07B681B68C6
:103A0C0003F00403002B08D0194B5B6823F4E0622D
:103A1C007B68DB68164913434B607B681B6803F0BB
:103A2C000803002B09D0124B5B6823F460527B68AF
:103A3C001B69DB000E4913434B6000F021F8024672
:103A4C000B4B5B681B0903F00F030A49CB5C22FA92
:103A5C0003F3094A1360094B1B681846FEF72CFB4D
:103A6C00002318461037BD4680BD00BF0020024021
:103A7C0000100240A86B0008680000206C000020B9
:103A8C0090B48AB000AF2A4B3C1D0FCB84E80F00DA
:103A9C0040F201233B800023FB610023BB61002328
:103AAC007B6200237B6100233B62224B5B68FB61E2
:103ABC00FB6903F00C03042B02D0082B03D02DE080
:103ACC001D4B3B622DE0FB699B0C03F00F0307F1D0
:103ADC002802134413F8243C7B61FB6903F4803304
:103AEC00002B13D0134B5B685B0C03F0010307F145
:103AFC002802134413F8283CBB617B690E4A02FB75
:103B0C0003F2BB69B2FBF3F37B6204E07B690B4A03
:103B1C0002FB03F37B627B6A3B6202E0064B3B6277
:103B2C0000BF3B6A18462837BD4690BC704700BFA3
:103B3C00906800080010024000127A0000093D0055
:103B4C0080B400AF024B1B681846BD4680BC704762
:103B5C006800002080B500AFFFF7F2FF0246054B6E
:103B6C005B681B0A03F007030349CB5C22FA03F3DF
:103B7C00184680BD00100240B86B000880B500AF3D
:103B8C00FFF7DEFF0246054B5B68DB0A03F0070319
:103B9C000349CB5C22FA03F3184680BD00100240A7
:103BAC00B86B000880B485B000AF78600A4B1B6816
:103BBC000A4AA2FB03235B0A7A6802FB03F3FB604D
:103BCC0000BFFB685A1EFA60002BF9D100BF00BF82
:103BDC001437BD4680BC704768000020D34D62107E
:103BEC0080B586B000AF786000233B610023FB609A
:103BFC007B681B6803F00103002B7DD00023FB7551
:103C0C004F4BDB6903F08053002B0DD14C4BDB6920
:103C1C004B4A43F08053D361494BDB6903F080532B
:103C2C00BB60BB680123FB75464B1B6803F48073B8
:103C3C00002B18D1434B1B68424A43F4807313602A
:103C4C00FEF77CFA386108E0FEF778FA02463B6929
:103C5C00D31A642B01D903236DE03A4B1B6803F490
:103C6C008073002BF0D0364B1B6A03F44073FB605F
:103C7C00FB68002B2ED07B685B6803F44073FA68FA
:103C8C009A4227D02E4B1B6A23F44073FB602E4BB9
:103C9C0001221A602C4B00221A60294AFB6813621D
:103CAC00FB6803F00103002B14D0FEF747FA3861D0
:103CBC000AE0FEF743FA02463B69D31A41F2883216
:103CCC00934201D9032336E01D4B1B6A03F0020318
:103CDC00002BEED01A4B1B6A23F440727B685B6896
:103CEC00174913430B62FB7D012B05D1144BDB6988
:103CFC00134A23F08053D3617B681B6803F00203E3
:103D0C00002B08D00E4B5B6823F440427B689B6809
:103D1C000B4913434B607B681B6803F01003002BAB
:103D2C0008D0074B5B6823F480027B68DB6804498E
:103D3C0013434B60002318461837BD4680BD00BFA7
:103D4C0000100240007000404004424290B58DB01B
:103D5C0000AF78605A4B07F10C040FCB84E80F00CE
:103D6C0040F201233B8100237B620023FB62002392
:103D7C003B620023FB610023BB627B68102B0AD0E3
:103D8C007B68102B00F291807B68012B4CD07B68F8
:103D9C00022B7CD089E04B4B5B68FB61494B1B6869
:103DAC0003F08073002B00F08280FB699B0C03F006
:103DBC000F0307F13002134413F8243C3B62FB69F8
:103DCC0003F48033002B18D03E4B5B685B0C03F084
:103DDC00010307F13002134413F8283C7B62FB69A2
:103DEC0003F48033002B0DD0374A7B6AB2FBF3F21D
:103DFC003B6A02FB03F3FB6204E03B6A334A02FBBF
:103E0C0003F3FB622F4B5B6803F48003B3F5800F65
:103E1C0002D1FB6ABB624AE0FB6A5B002C4AA2FB44
:103E2C0003235B08BB6242E0264B1B6AFB61FB6908
:103E3C0003F44073B3F5807F08D1FB6903F00203F0
:103E4C00002B03D04FF40043BB621FE0FB6903F46B
:103E5C004073B3F5007F09D11A4B5B6A03F0020380
:103E6C00002B03D049F64043BB620FE0FB6903F41F
:103E7C004073B3F5407F1CD1124B1B6803F4003325
:103E8C00002B16D04FF22443BB6212E011E0FFF777
:103E9C0075FE02460B4B5B689B0B03F0030301336F
:103EAC005B00B2FBF3F3BB6204E000BF02E000BFB7
:103EBC0000E000BFBB6A18463437BD4690BD00BF5A
:103ECC00A06800080010024000127A0000093D00B2
:103EDC00ABAAAAAA80B582B000AF78607B68002B31
:103EEC0001D1012341E07B6893F83D30DBB2002B1C
:103EFC0006D17B68002283F83C207868FDF7D4FF5C
:103F0C007B68022283F83D207B681A687B68043347
:103F1C001946104600F070FC7B68012283F846209D
:103F2C007B68012283F83E207B68012283F83F20C6
:103F3C007B68012283F840207B68012283F84120B2
:103F4C007B68012283F842207B68012283F843209E
:103F5C007B68012283F844207B68012283F845208A
:103F6C007B68012283F83D20002318460837BD46A4
:103F7C0080BD000080B485B000AF78607B6893F89A
:103F8C003D30DBB2012B01D0012332E07B680222F1
:103F9C0083F83D207B681B68184A93420ED07B68DF
:103FAC001B68B3F1804F09D07B681B68144A93429D
:103FBC0004D07B681B68134A934211D17B681B6841
:103FCC009B6803F00703FB60FB68062B10D07B6833
:103FDC001B681A687B681B6842F001021A6007E0D4
:103FEC007B681B681A687B681B6842F001021A60C8
:103FFC00002318461437BD4680BC7047002C014086
:10400C00000400400008004080B582B000AF78602A
:10401C007B68002B01D1012341E07B6893F83D3094
:10402C00DBB2002B06D17B68002283F83C20786839
:10403C0000F039F87B68022283F83D207B681A680F
:10404C007B6804331946104600F0D6FB7B680122CE
:10405C0083F846207B68012283F83E207B6801228E
:10406C0083F83F207B68012283F840207B68012283
:10407C0083F841207B68012283F842207B6801226F
:10408C0083F843207B68012283F844207B6801225B
:10409C0083F845207B68012283F83D2000231846D5
:1040AC000837BD4680BD80B483B000AF786000BFD8
:1040BC000C37BD4680BC704780B584B000AF7860CB
:1040CC0039603B68002B09D17B6893F83E30DBB23A
:1040DC00012B14BF01230023DBB222E03B68042B2D
:1040EC0009D17B6893F83F30DBB2012B14BF01235D
:1040FC000023DBB215E03B68082B09D17B6893F8F1
:10410C004030DBB2012B14BF01230023DBB208E0EB
:10411C007B6893F84130DBB2012B14BF01230023E1
:10412C00DBB2002B01D00123A4E03B68002B04D1AF
:10413C007B68022283F83E2013E03B68042B04D1F9
:10414C007B68022283F83F200BE03B68082B04D1EC
:10415C007B68022283F8402003E07B68022283F80C
:10416C0041203B680C2B41D801A252F823F000BF30
:10417C00B1410008F9410008F9410008F941000873
:10418C00C3410008F9410008F9410008F941000851
:10419C00D5410008F9410008F9410008F94100082F
:1041AC00E74100087B681B68DA687B681B6842F093
:1041BC000202DA601BE07B681B68DA687B681B68AC
:1041CC0042F00402DA6012E07B681B68DA687B68F4
:1041DC001B6842F00802DA6009E07B681B68DA6849
:1041EC007B681B6842F01002DA6000E000BF7B685D
:1041FC001B6801223968184600F07EFD7B681B683D
:10420C001E4A934207D17B681B685A6C7B681B68FB
:10421C0042F400425A647B681B68184A93420ED0E1
:10422C007B681B68B3F1804F09D07B681B68144A0C
:10423C00934204D07B681B68124A934211D17B686D
:10424C001B689B6803F00703FB60FB68062B10D010
:10425C007B681B681A687B681B6842F001021A6055
:10426C0007E07B681B681A687B681B6842F00102D8
:10427C001A60002318461037BD4680BD002C014043
:10428C00000400400008004080B582B000AF7860A8
:10429C007B681B681B6903F00203022B22D17B682D
:1042AC001B68DB6803F00203022B1BD17B681B68C5
:1042BC006FF002021A617B6801221A777B681B6817
:1042CC009B6903F00303002B03D0786800F078FAA5
:1042DC0005E0786800F06BFA786800F07AFA7B6891
:1042EC0000221A777B681B681B6903F00403042BFC
:1042FC0022D17B681B68DB6803F00403042B1BD101
:10430C007B681B686FF004021A617B6802221A77C3
:10431C007B681B689B6903F44073002B03D078689F
:10432C0000F04EFA05E0786800F041FA786800F089
:10433C0050FA7B6800221A777B681B681B6903F0B4
:10434C000803082B22D17B681B68DB6803F0080389
:10435C00082B1BD17B681B686FF008021A617B6805
:10436C0004221A777B681B68DB6903F00303002BBC
:10437C0003D0786800F024FA05E0786800F017FAAA
:10438C00786800F026FA7B6800221A777B681B6835
:10439C001B6903F01003102B22D17B681B68DB68B0
:1043AC0003F01003102B1BD17B681B686FF01002FD
:1043BC001A617B6808221A777B681B68DB6903F437
:1043CC004073002B03D0786800F0FAF905E07868A8
:1043DC0000F0EDF9786800F0FCF97B6800221A77A0
:1043EC007B681B681B6903F00103012B0ED17B68F2
:1043FC001B68DB6803F00103012B07D17B681B688A
:10440C006FF001021A61786800F0C8F97B681B68CC
:10441C001B6903F08003802B0ED17B681B68DB6863
:10442C0003F08003802B07D17B681B686FF0800240
:10443C001A61786800F0EBFC7B681B681B6903F061
:10444C004003402B0ED17B681B68DB6803F04003F4
:10445C00402B07D17B681B686FF040021A617868AB
:10446C0000F0C0F97B681B681B6903F02003202B4C
:10447C000ED17B681B68DB6803F02003202B07D16F
:10448C007B681B686FF020021A61786800F0B6FC3C
:10449C0000BF0837BD4680BD80B584B000AFF86062
:1044AC00B9607A60FB6893F83C30012B01D1022390
:1044BC00ACE0FB68012283F83C207B680C2B00F2FB
:1044CC009F8001A252F823F0094500080D46000810
:1044DC000D4600080D460008494500080D46000829
:1044EC000D4600080D4600088B4500080D460008D7
:1044FC000D4600080D460008CB450008FB681B68FC
:10450C00B968184600F0DAF9FB681B689A69FB6811
:10451C001B6842F008029A61FB681B689A69FB6889
:10452C001B6822F004029A61FB681B689969BB68DE
:10453C001A69FB681B680A439A6162E0FB681B6896
:10454C00B968184600F020FAFB681B689A69FB688A
:10455C001B6842F400629A61FB681B689A69FB68ED
:10456C001B6822F480629A61FB681B689969BB68BE
:10457C001B691A02FB681B680A439A6141E0FB68DD
:10458C001B68B968184600F069FAFB681B68DA69A1
:10459C00FB681B6842F00802DA61FB681B68DA6989
:1045AC00FB681B6822F00402DA61FB681B68D9699E
:1045BC00BB681A69FB681B680A43DA6121E0FB6877
:1045CC001B68B968184600F0B3FAFB681B68DA6917
:1045DC00FB681B6842F40062DA61FB681B68DA69ED
:1045EC00FB681B6822F48062DA61FB681B68D9697E
:1045FC00BB681B691A02FB681B680A43DA6100E09E
:10460C0000BFFB68002283F83C20002318461037BB
:10461C00BD4680BD80B584B000AF786039607B68E2
:10462C0093F83C30012B01D10223B3E07B680122CB
:10463C0083F83C207B68022283F83D207B681B6852
:10464C009B68FB60FB6823F07703FB60FB6823F43B
:10465C007F43FB607B681B68FA689A603B681B6849
:10466C00B3F5005F3ED0B3F5005F00F28780B3F581
:10467C00805F00F08580B3F5805F7FD8702B1AD0F7
:10468C00702B7BD8602B50D0602B77D8502B3CD024
:10469C00502B73D8402B58D0402B6FD8302B64D074
:1046AC00302B6BD8202B60D0202B67D8002B5CD004
:1046BC00102B5AD062E07B6818683B6899683B689D
:1046CC005A683B68DB6800F0F8FA7B681B689B68EB
:1046DC00FB60FB6843F07703FB607B681B68FA6840
:1046EC009A604EE07B6818683B6899683B685A682A
:1046FC003B68DB6800F0E1FA7B681B689A687B68B2
:10470C001B6842F480429A603BE07B6818683B6807
:10471C0059683B68DB681A4600F058FA7B681B68DE
:10472C005021184600F0AFFA2BE07B6818683B6804
:10473C0059683B68DB681A4600F076FA7B681B68A0
:10474C006021184600F09FFA1BE07B6818683B68F4
:10475C0059683B68DB681A4600F038FA7B681B68BE
:10476C004021184600F08FFA0BE07B681A683B6812
:10477C001B681946104600F086FA02E000BF00E004
:10478C0000BF7B68012283F83D207B68002283F800
:10479C003C20002318461037BD4680BD80B483B042
:1047AC0000AF786000BF0C37BD4680BC704780B44A
:1047BC0083B000AF786000BF0C37BD4680BC70473B
:1047CC0080B483B000AF786000BF0C37BD4680BCAE
:1047DC00704780B483B000AF786000BF0C37BD4623
:1047EC0080BC704780B483B000AF786000BF0C37DA
:1047FC00BD4680BC7047000080B485B000AF7860C7
:10480C0039607B681B68FB607B68294A93420BD03C
:10481C007B68B3F1804F07D07B68264A934203D064
:10482C007B68254A934208D1FB6823F07003FB6038
:10483C003B685B68FA681343FB607B681C4A9342D5
:10484C000BD07B68B3F1804F07D07B68194A934239
:10485C0003D07B68184A934208D1FB6823F4407359
:10486C00FB603B68DB68FA681343FB60FB6823F072
:10487C0080023B685B691343FB607B68FA681A60D3
:10488C003B689A687B68DA623B681A687B689A6254
:10489C007B68074A934203D13B681A697B681A63A9
:1048AC007B6801225A6100BF1437BD4680BC70473B
:1048BC00002C0140000400400008004080B487B088
:1048CC0000AF786039607B681B6A23F001027B685B
:1048DC001A627B681B6A7B617B685B683B617B68E7
:1048EC009B69FB60FB6823F07003FB60FB6823F0A3
:1048FC000303FB603B681B68FA681343FB607B692E
:10490C0023F002037B613B689B687A6913437B61EC
:10491C007B681C4A93420CD17B6923F008037B61B2
:10492C003B68DB687A6913437B617B6923F0040382
:10493C007B617B68134A934211D13B6923F48073EA
:10494C003B613B6923F400733B613B685B693A69EB
:10495C0013433B613B689B693A6913433B617B683A
:10496C003A695A607B68FA689A613B685A687B6856
:10497C005A637B687A691A6200BF1C37BD4680BCDB
:10498C00704700BF002C014080B487B000AF786046
:10499C0039607B681B6A23F010027B681A627B68A3
:1049AC001B6A7B617B685B683B617B689B69FB6016
:1049BC00FB6823F4E043FB60FB6823F44073FB606B
:1049CC003B681B681B02FA681343FB607B6923F08E
:1049DC0020037B613B689B681B017A6913437B61F5
:1049EC007B681D4A93420DD17B6923F080037B6168
:1049FC003B68DB681B017A6913437B617B6923F09D
:104A0C0040037B617B68144A934213D13B6923F4C6
:104A1C0080633B613B6923F400633B613B685B69EA
:104A2C009B003A6913433B613B689B699B003A6965
:104A3C0013433B617B683A695A607B68FA689A61F8
:104A4C003B685A687B689A637B687A691A6200BF14
:104A5C001C37BD4680BC7047002C014080B487B029
:104A6C0000AF786039607B681B6A23F480727B68C6
:104A7C001A627B681B6A7B617B685B683B617B6845
:104A8C00DB69FB60FB6823F07003FB60FB6823F0C1
:104A9C000303FB603B681B68FA681343FB607B698C
:104AAC0023F400737B613B689B681B027A69134398
:104ABC007B617B681D4A93420DD17B6923F40063B3
:104ACC007B613B68DB681B027A6913437B617B6902
:104ADC0023F480637B617B68144A934213D13B6956
:104AEC0023F480533B613B6923F400533B613B68E7
:104AFC005B691B013A6913433B613B689B691B0172
:104B0C003A6913433B617B683A695A607B68FA687F
:104B1C00DA613B685A687B68DA637B687A691A6287
:104B2C0000BF1C37BD4680BC704700BF002C014045
:104B3C0080B487B000AF786039607B681B6A23F45F
:104B4C0080527B681A627B681B6A3B617B685B687E
:104B5C007B617B68DB69FB60FB6823F4E043FB60F3
:104B6C00FB6823F44073FB603B681B681B02FA680C
:104B7C001343FB603B6923F400533B613B689B6828
:104B8C001B033A6913433B617B680F4A934209D17B
:104B9C007B6923F480437B613B685B699B017A6989
:104BAC0013437B617B687A695A607B68FA68DA61C7
:104BBC003B685A687B681A647B683A691A6200BF62
:104BCC001C37BD4680BC7047002C014080B487B0B8
:104BDC0000AFF860B9607A60FB681B6A7B61FB68A8
:104BEC001B6A23F00102FB681A62FB689B693B613C
:104BFC003B6923F0F0033B617B681B013A6913436B
:104C0C003B617B6923F00A037B617A69BB681343C0
:104C1C007B61FB683A699A61FB687A691A6200BF2A
:104C2C001C37BD4680BC704780B487B000AFF860BD
:104C3C00B9607A60FB681B6A23F01002FB681A6289
:104C4C00FB689B697B61FB681B6A3B617B6923F496
:104C5C0070437B617B681B037A6913437B613B69FF
:104C6C0023F0A0033B61BB681B013A6913433B6112
:104C7C00FB687A699A61FB683A691A6200BF1C3753
:104C8C00BD4680BC704780B485B000AF7860396099
:104C9C007B689B68FB60FB6823F07003FB603A68E1
:104CAC00FB68134343F00703FB607B68FA689A6068
:104CBC0000BF1437BD4680BC704780B487B000AFCE
:104CCC00F860B9607A603B60FB689B687B617B69CC
:104CDC0023F47F437B613B681A027B681A43BB68F1
:104CEC0013437A6913437B61FB687A699A6000BF4E
:104CFC001C37BD4680BC704780B487B000AFF860ED
:104D0C00B9607A60BB6803F01F03012202FA03F357
:104D1C007B61FB681A6A7B69DB431A40FB681A6289
:104D2C00FB681A6ABB6803F01F03796801FA03F386
:104D3C001A43FB681A6200BF1C37BD4680BC704723
:104D4C0080B485B000AF786039607B6893F83C30F4
:104D5C00012B01D1022346E07B68012283F83C2021
:104D6C007B68022283F83D207B681B685B68FB60D4
:104D7C007B681B689B68BB60FB6823F07003FB605F
:104D8C003B681B68FA681343FB607B681B68FA6816
:104D9C005A607B681B68164A93420ED07B681B686E
:104DAC00B3F1804F09D07B681B68124A934204D040
:104DBC007B681B68104A93420CD1BB6823F08003BC
:104DCC00BB603B685B68BA681343BB607B681B685D
:104DDC00BA689A607B68012283F83D207B680022C8
:104DEC0083F83C20002318461437BD4680BC70471E
:104DFC00002C0140000400400008004080B483B047
:104E0C0000AF786000BF0C37BD4680BC704780B4E3
:104E1C0083B000AF786000BF0C37BD4680BC7047D4
:104E2C0080B582B000AF78607B68002B01D1012384
:104E3C003FE07B6893F83930DBB2002B06D17B68FE
:104E4C00002283F838207868FDF788F87B682422E4
:104E5C0083F839207B681B68DA687B681B6822F44E
:104E6C000052DA60786800F083FB7B681B681A6973
:104E7C007B681B6822F490421A617B681B685A6934
:104E8C007B681B6822F02A025A617B681B68DA680F
:104E9C007B681B6842F40052DA607B680022DA639C
:104EAC007B68202283F839207B68202283F83A2003
:104EBC00002318460837BD4680BD80B58AB002AFC6
:104ECC00F860B9603B601346FB8000237B61FB6894
:104EDC0093F83930DBB2202B7CD1BB68002B02D08D
:104EEC00FB88002B01D1012375E0FB6893F8383067
:104EFC00012B01D102236EE0FB68012283F83820DC
:104F0C00FB680022DA63FB68212283F83920FDF765
:104F1C0015F97861FB68FA889A84FB68FA88DA8458
:104F2C00FB689B68B3F5805F08D1FB681B69002B9D
:104F3C0004D10023FB61BB68BB6103E0BB68FB6170
:104F4C000023BB61FB68002283F838202AE03B6811
:104F5C0000937B6900228021F86800F0A7F90346D2
:104F6C00002B01D0032336E0FB69002B0BD1BB696E
:104F7C001B881A46FB681B68C2F308025A60BB699F
:104F8C000233BB6107E0FB691A78FB681B685A6047
:104F9C00FB690133FB61FB68DB8C9BB2013B9AB272
:104FAC00FB68DA84FB68DB8C9BB2002BCFD13B68AF
:104FBC0000937B6900224021F86800F077F90346E2
:104FCC00002B01D0032306E0FB68202283F8392054
:104FDC00002300E0022318462037BD4680BD80B474
:104FEC0085B000AFF860B9601346FB80FB6893F89E
:104FFC003A30DBB2202B40D1BB68002B02D0FB88AF
:10500C00002B01D1012339E0FB6893F83830012BD8
:10501C0001D1022332E0FB68012283F83820FB68BF
:10502C00BA689A62FB68FA889A85FB68FA88DA850E
:10503C00FB680022DA63FB68222283F83A20FB68C3
:10504C00002283F83820FB681B68DA68FB681B6851
:10505C0042F48072DA60FB681B685A69FB681B6853
:10506C0042F001025A61FB681B68DA68FB681B6836
:10507C0042F02002DA60002300E0022318461437C5
:10508C00BD4680BC7047000080B588B000AF78602A
:10509C007B681B681B68FB617B681B68DB68BB61FA
:1050AC007B681B685B697B6100233B610023FB60B1
:1050BC00FB6903F00F033B613B69002B0DD1FB69CE
:1050CC0003F02003002B08D0BB6903F02003002B56
:1050DC0003D0786800F0CCF9D0E03B69002B00F0ED
:1050EC00B0807B6903F00103002B05D1BB6903F48D
:1050FC009073002B00F0A580FB6903F00103002BDB
:10510C000AD0BB6903F48073002B05D07B68DB6B82
:10511C0043F001027B68DA63FB6903F00403002BA4
:10512C000AD07B6903F00103002B05D07B68DB6B95
:10513C0043F002027B68DA63FB6903F00203002B85
:10514C000AD07B6903F00103002B05D07B68DB6B75
:10515C0043F004027B68DA63FB6903F00803002B5D
:10516C000FD0BB6903F02003002B04D17B6903F043
:10517C000103002B05D07B68DB6B43F008027B68D6
:10518C00DA637B68DB6B002B77D0FB6903F02003C1
:10519C00002B07D0BB6903F02003002B02D07868EA
:1051AC0000F066F97B681B685B6903F04003002B19
:1051BC0014BF01230023DBB2FB607B68DB6B03F0C5
:1051CC000803002B02D1FB68002B31D0786800F06B
:1051DC00B7F87B681B685B6903F04003002B23D096
:1051EC007B681B685A697B681B6822F040025A6115
:1051FC007B685B6B002B13D07B685B6B214A5A631B
:10520C007B685B6B1846FDF703FE0346002B16D03C
:10521C007B685B6B5B6B7A68526B104698470EE051
:10522C00786800F03AF80AE0786800F036F806E0A2
:10523C00786800F032F87B680022DA631DE000BF6A
:10524C001BE0FB6903F08003002B08D0BB6903F063
:10525C008003002B03D0786800F0A3F80EE0FB6904
:10526C0003F04003002B09D0BB6903F04003002B73
:10527C0004D0786800F0E4F800E000BF2037BD46A9
:10528C0080BD00BF8753000880B483B000AF786046
:10529C0000BF0C37BD4680BC704780B483B000AFF4
:1052AC00786000BF0C37BD4680BC704780B584B0B9
:1052BC0000AFF860B9603B601346FB712CE0BB6932
:1052CC00B3F1FF3F28D0BB69002B07D0FCF736FFAA
:1052DC0002463B68D31ABA699A421DD2FB681B6816
:1052EC00DA68FB681B6822F4D072DA60FB681B6812
:1052FC005A69FB681B6822F001025A61FB68202284
:10530C0083F83920FB68202283F83A20FB680022BE
:10531C0083F8382003230FE0FB681B681A68BB680E
:10532C001340BA689A420CBF01230023DBB21A4621
:10533C00FB799A42C3D0002318461037BD4680BD76
:10534C0080B483B000AF78607B681B68DA687B68D8
:10535C001B6822F49072DA607B681B685A697B6860
:10536C001B6822F001025A617B68202283F83A20E4
:10537C0000BF0C37BD4680BC704780B584B000AF11
:10538C0078607B685B6AFB60FB680022DA85FB68EF
:10539C000022DA84F868FFF780FF00BF1037BD46A3
:1053AC0080BD80B485B000AF78607B6893F83930ED
:1053BC00DBB2212B3ED17B689B68B3F5805F14D1A7
:1053CC007B681B69002B10D17B681B6AFB60FB6838
:1053DC001B881A467B681B68C2F308025A607B68FC
:1053EC001B6A9A1C7B681A6208E07B681B6A591C52
:1053FC007A6811621A787B681B685A607B68DB8C50
:10540C009BB2013B9BB27A681946D184002B0FD119
:10541C007B681B68DA687B681B6822F08002DA60A4
:10542C007B681B68DA687B681B6842F04002DA60B4
:10543C00002300E0022318461437BD4680BC704799
:10544C0080B582B000AF78607B681B68DA687B68D7
:10545C001B6822F04002DA607B68202283F8392036
:10546C007868FFF711FF002318460837BD4680BD4A
:10547C0080B584B000AF78607B6893F83A30DBB2CB
:10548C00222B70D17B689B68B3F5805F17D17B684A
:10549C001B69002B13D10023FB607B689B6ABB60EC
:1054AC007B681B685B689BB2C3F308039AB2BB684A
:1054BC001A807B689B6A9A1C7B689A6226E07B68E0
:1054CC009B6AFB600023BB607B689B68B3F5805FC5
:1054DC0007D07B689B68002B0AD17B681B69002B6B
:1054EC0006D17B681B685B68DAB2FB681A7008E04F
:1054FC007B681B685B68DBB203F07F03DAB2FB6886
:10550C001A707B689B6A5A1C7B689A627B68DB8D7D
:10551C009BB2013B9BB27A681946D185002B20D1F6
:10552C007B681B68DA687B681B6822F02002DA60F3
:10553C007B681B68DA687B681B6822F48072DA600F
:10554C007B681B685A697B681B6822F001025A61F0
:10555C007B68202283F83A207868FCF729FA00232C
:10556C0002E0002300E0022318461037BD4680BD40
:10557C0080B584B000AF78607B681B681B6923F42E
:10558C0040517B68DA687B681B680A431A617B6848
:10559C009A687B681B691A437B685B691343BB6021
:1055AC007B681B68DB6823F4B05323F00C037A6828
:1055BC001268B9680B43D3607B681B685B6923F482
:1055CC0040717B689A697B681B680A435A617B68E7
:1055DC001B682C4A934203D1FEF7D0FAF86002E024
:1055EC00FEF7B8FAF860FA6813469B0013449A0069
:1055FC001A447B685B689B00B2FBF3F3224AA2FB64
:10560C0003235B091901FA6813469B0013449A00A3
:10561C001A447B685B689B00B2FBF3F21A4BA3FB4A
:10562C0002035B09642000FB03F3D31A1B01323322
:10563C00154AA2FB03235B0903F0F0031944FA6833
:10564C0013469B0013449A001A447B685B689B00CA
:10565C00B2FBF3F20C4BA3FB02035B09642000FBCF
:10566C0003F3D31A1B013233074AA2FB03235B0952
:10567C0003F00F027B681B680A449A6000BF103766
:10568C00BD4680BD003801401F85EB5170B500262A
:10569C000C4D0D4C641BA410A64209D101F0C6F8A8
:1056AC0000260A4D0A4C641BA410A64205D170BDFD
:1056BC0055F8043B98470136EEE755F8043B9847FC
:1056CC000136F2E70C6D00080C6D00080C6D00083B
:1056DC00146D0008884210B501EB020402D9844213
:1056EC00234607D8431EA14208D011F8012B03F81A
:1056FC00012FF8E7014602448A4200D110BD13F88D
:10570C00014D02F8014DF7E703460244934200D1E4
:10571C00704703F8011BF9E738B5104B04461D68B8
:10572C00AB6BB3B9182000F095F80246A86320B90A
:10573C0042210B4B0B4800F05DF80B490B4BC0E9B9
:10574C0000130B4B002183600B2383810120C2E9E2
:10575C0004010022AB6B1C615A6138BD740000203F
:10576C00C46B0008DB6B00080E33CDAB34126DE656
:10577C00ECDE0500174B10B51C68A36BB3B91820F1
:10578C0000F068F80246A06320B94E21124B134872
:10579C0000F030F81249134BC0E90013124B0021F2
:1057AC0083600B2383810120C2E90401A16B0F48A4
:1057BC000A694B6950430E4C04FB0300A2FB0434F2
:1057CC005A1C044444F10000C1E9042020F00040BC
:1057DC0010BD00BF74000020C46B0008DB6B000818
:1057EC000E33CDAB34126DE6ECDE05002DF45158C2
:1057FC002D7F954C1FB514461A46094B05461B6860
:10580C00D8684CB1074BCDE9013400912B460649C1
:10581C0000F00EF800F08AFC044B1C46F3E700BFC6
:10582C00740000203A6C0008476C0008756C000886
:10583C000EB403B5014603AB054853F8042B0068BE
:10584C00019300F0DDF802B05DF804EB03B0704793
:10585C0074000020024B0146186800F04FB800BFDE
:10586C007400002038B50546002943D051F8043C9B
:10587C000C1F002BB8BFE41800F08CFE1E4A1368F6
:10588C00104633B9636014602846BDE8384000F018
:10589C0087BEA3420AD921686218934201BF1A68D5
:1058AC005B685218226063600460EDE71A465B681F
:1058BC000BB1A342FAD911685018A0420BD1206841
:1058CC000144501883421160DED118685B680144B2
:1058DC0011605360D8E702D90C232B60D4E7206801
:1058EC0021188B4201BF19685B680918216063603D
:1058FC005460C9E738BD00BF98020020F8B5CD1C34
:10590C0025F0030508350C2D38BF0C25002D064657
:10591C0001DBA94203D90C2333600020F8BD00F051
:10592C0039FE21490A6814469CB9204F3B6823B9BB
:10593C002146304600F02AFB38602946304600F0FC
:10594C0025FB431C23D10C233046336000F028FE8A
:10595C00E3E723685B1B17D40B2B03D923601C4490
:10596C00256004E06368A2420CBF0B6053603046B4
:10597C0000F016FE04F10B00231D20F00700C21AE4
:10598C00CCD01B1AA350C9E722466468CCE7C41CD0
:10599C0024F00304A042E3D0211A304600F0F6FABA
:1059AC000130DDD1CFE700BF980200209C0200201F
:1059BC00936810B4013B002B936007DA9469A342FF
:1059CC0001DB0A2902D110BC00F0F0BA1368581C94
:1059DC0010601970084610BC7047F8B506460F46A3
:1059EC001446D518AC4201D1002007E03A463046A7
:1059FC0014F8011BFFF7DCFF431CF3D1F8BD0000CA
:105A0C002DE9F04F0D461446984606469DB018B148
:105A1C0083690BB900F0ACFC894B9D421BD17568B6
:105A2C006B6ED90705D4AB899A0502D4A86D00F02A
:105A3C003DFDAB891B0701D52B69EBB929463046D7
:105A4C0000F006FBC0B16B6EDC070ED54FF0FF30DB
:105A5C001DB0BDE8F08F7B4B9D4201D1B568DFE7EF
:105A6C00794B9D4208BFF568DAE7AB899805EDD410
:105A7C00A86D00F01CFDE9E70023099320238DF8A5
:105A8C00293030234FF00109CDF80C80DFF8BC81B0
:105A9C008DF82A3023469A4613F8012B0AB1252A91
:105AAC00F9D1BAEB040B0BD05B46224629463046A3
:105ABC00FFF793FF013000F0AA80099A5A4409922B
:105ACC009AF80030002B00F0A28000234FF0FF3238
