:020000040800F2
:10000000005000208D130008091300080B1300088E
:100010000D1300080F130008111300080000000062
:1000200000000000000000000000000013130008A2
:10003000151300080000000017130008191300082A
:10004000D5130008D5130008D5130008D5130008F0
:10005000D5130008D5130008D5130008D5130008E0
:10006000D5130008D5130008D5130008D5130008D0
:10007000D5130008D5130008D5130008D5130008C0
:10008000D5130008D51300081D130008D513000868
:10009000D5130008D5130008D5130008D5130008A0
:1000A000D5130008D5130008D5130008D513000890
:1000B000D513000839130008D5130008D51300081C
:1000C000D5130008D5130008D5130008D513000870
:1000D000D5130008D5130008D513000845130008F0
:1000E000D5130008D5130008D51300080000000040
:1000F0000000000000000000000000000000000000
:0C01000000000000000000005FF808F1A3
:10010C0010B5054C237833B9044B13B10448AFF345
:10011C0000800123237010BDD800002000000000D7
:10012C004841000808B5034B1BB103490348AFF322
:10013C00008008BD00000000DC00002048410008E1
:10014C00034613F8012B002AFBD1181A013870470B
:10015C0090F84930ABB1FF2200F1080300F1100117
:10016C0003F8012B9942DA71DA73DA75DA7783F8CE
:10017C00272083F82F2083F83720F1D1002380F833
:10018C004930704710B590F84930044633B100231C
:10019C0080F84930A0F86C3080F86E3001F058F9D6
:1001AC00636EC01AA36E98420CD901F051F994F801
:1001BC006E3060663BB1012B12D04FF08043B4F827
:1001CC006C201A6410BD40F6FF72B4F86C30013329
:1001DC009BB29342A4F86C3004BF012384F86E30B8
:1001EC00B4F86C30013B9BB2A4F86C30002BE4D11A
:1001FC0084F86E30E1E70000F0B52C4D0724802622
:10020C002B4601274830296946FA04F241F40031A3
:10021C00D24329610021D2B242FA01FE1EF0010F35
:10022C000CBF4FF4803E4FF0010ED3F810C00131DB
:10023C004CF4802CC3F810C0D3F810C008294CEA39
:10024C000E0CC3F810C0D3F810C04CF0040CC3F85B
:10025C0010C0E1D1A0F108014FF0000C1A6942F472
:10026C0080221A610A78D3F810E042FA0CF202F0FC
:10027C000102120107FA02F242EA0E021A611A692D
:10028C000CF1010C42F00402BCF1080F1A61E5D12B
:10029C0001318142E0D11A69013C42F002021A613B
:1002AC00621CA1F10800AED1F0BD00BF00080140F6
:1002BC0081667047806E704790F84800704710B5A3
:1002CC008024C3F1070300EBC30001440B7A9DF8B3
:1002DC00080044FA02F223EA020342431A430A7268
:1002EC0010BD90F848300133DBB2082B88BF0023D7
:1002FC0080F84830704790F84830013BDBB2082B4F
:10030C0088BF072380F848307047002200F10803AB
:10031C00103003F8012B9842DA71DA73DA75DA7758
:10032C0083F8272083F82F2083F83720F1D17047EA
:10033C0038B504460125FFF7E8FF84F8495001F071
:10034C0087F81B4B60665A6842F020025A6094F89A
:10035C004820072A0ED8DFE802F00E13171C2025C0
:10036C002704A5665A6822F020025A60114B2360BC
:10037C000023636038BD4FF48273A3660E4BF6E71F
:10038C00DC23A3660D4BF2E74FF4AF73A3660C4B63
:10039C00EDE7C823A3660B4BE9E74FF49673A3660E
:1003AC00094BE4E7094BE2E76423A366084BDEE75D
:1003BC000028014091010008C70A00083F0B000803
:1003CC0093060008190700082F0A00085D010008B1
:1003DC00E10300082DE9F74F90F849300446E3B1EA
:1003EC00FFF793FF002304F1500684F8493064238F
:1003FC0037464FF49678A36604F14A0525F8028B2C
:10040C000721032000F07AFCBD42C0EB001006F877
:10041C00010BF3D101F01CF8606601F019F8636E62
:10042C00C01AA36E984240F28F8001F011F804F1CB
:10043C0050052F464FF00108606604F14A0636F964
:10044C00023B15F9012B13441BB2012B7FDD26F85F
:10045C00023C36F9023CB3F5167F12DB4FF41673EF
:10046C0026F8023C15F8013C05215B4205F8013CDD
:10047C00002000F043FCC31E15F8010C184405F8CD
:10048C00010CBE42DBD12046FFF73FFF6423B4F9D9
:10049C004A60B4F94C50B4F94E7096FBF3F64FF039
:1004AC00010895FBF3F597FBF3F7F6B2EDB2FFB24B
:1004BC0006EB08095FFA89F93B462A463146204685
:1004CC00CDF8008005EB080AFFF7F9FE5FFA8AFA0F
:1004DC003B462A4649462046CDF8008007EB080BE0
:1004EC00FFF7EDFE5FFA8BFB3B465246314620464A
:1004FC00CDF80080FFF7E3FE5B462A4631462046E6
:10050C00CDF80080FFF7DBFE3B46524649462046BD
:10051C00CDF80080FFF7D3FE5B46524631462046AD
:10052C00CDF80080FFF7CBFE5B462A4649462046B5
:10053C00CDF80080FFF7C3FE5B4652464946204685
:10054C00CDF80080FFF7BBFE03B0BDE8F08F524240
:10055C0026F8028C0521002005F8012C00F0CEFBBA
:10056C00C31E15F8010C184405F8010C71E7C165A0
:10057C0080F8602070472DE9F04F89B099469DF8BE
:10058C0048300546069300231746069A04934B1EE3
:10059C001344DBB203910793049B069A93426FD0EA
:1005AC0001249DF810604B4607EB060B5FFA8BFBA2
:1005BC005A46284603990094FFF781FE039B3A465E
:1005CC0003EB060A5FFA8AFA4B46514628464E441C
:1005DC000094FFF774FEF3B23A4628460399009450
:1005EC000593FFF76CFE069B09F1FF3898445FFA00
:1005FC0088F843465A46284607990094FFF75FFE51
:10060C00069B7E1E1E44F6B2434632465146284691
:10061C000094FFF754FE32462846059B0799009438
:10062C00FFF74DFE4B465A46284607990094FFF7B4
:10063C0046FE43465A46284603990094FFF73FFE70
:10064C004B463246514628460094FFF738FE434647
:10065C003A46514628460094FFF731FE3A46284662
:10066C00059B07990094FFF72AFE059B3246284606
:10067C0003990094FFF723FE049B234404938BE718
:10068C0009B0BDE8F08F13B590F8493004465BB162
:10069C004FF4AF738366FFF738FE4FF48173A4F801
:1006AC005630002384F8493000F0D2FE636EC01A35
:1006BC00A36E98421FD900F0CBFE94F8572094F803
:1006CC0056306066CAB10233DBB2082B84F8563060
:1006DC0002D1002384F857302046FFF716FE94F819
:1006EC00562020465308C3F10403DBB2009219468E
:1006FC001A46FFF740FF02B010BD023BDBB2022BE3
:10070C0084F85630E8D10123E4E7000037B590F8BF
:10071C0049300446FBB1002580F84950FFF7F5FD40
:10072C000121284600F0EAFAC0EBC000012184F850
:10073C005800284600F0E2FAC0EBC00084F85900DB
:10074C000121284600F0DAFA0823C0EBC00084F837
:10075C005A00A4F8563000F07BFE636EC01AA36EEC
:10076C0098423DD900F074FE60662046FFF7CDFD3F
:10077C00A36D94F8560033F07F4333D194F85A307C
:10078C00009094F8592094F858102046FFF7F3FE87
:10079C0094F8572094F85630002A00F086800133E4
:1007AC00DBB2082B84F856301AD1002501212846DB
:1007BC0084F8575000F0A2FAC0EBC000012184F875
:1007CC005800284600F09AFAC0EBC00084F8590093
:1007DC000121284600F092FAC0EBC00084F85A00C0
:1007EC0003B030BD354A934210D194F85A3094F886
:1007FC00592094F8581001331B1A01320131121A86
:10080C00091A0090DBB2D2B2C9B2BEE7072B09D1EC
:10081C0094F8581094F85A300131091A009094F851
:10082C005920F1E7B3F5E06F08D194F8592094F80A
:10083C005A300132121A0090D2B2A4E7B3F5E02F6D
:10084C0006D194F85A30009001331B1ADBB298E7AA
:10085C0040F2077293420BD194F8592094F8581037
:10086C000132013194F85A30121A091A0090CAE771
:10087C00134A93420AD194F85A3094F85920013310
:10088C001B1A0132121A0090DBB2D5E7B3F1071F25
:10089C007FF47EAF94F85A3094F8581001331B1A39
:1008AC000131091A0090DBB2B9E7013BDBB2012B35
:1008BC0084F8563008BF84F8573091E707070700D3
:1008CC00000707002DE9F74307460E469046002423
:1008DC004FF001090025012E15D0022E18D03EB97B
:1008EC002B4622464146CDF800903846FFF7E7FCF0
:1008FC000135EDB2082DEED10134E4B2082CE9D16A
:10090C0003B0BDE8F0832B46424600962146ECE747
:10091C0043462A46CDF80090F8E730B505291ED895
:10092C00DFE801F0031E3A49586AC31D194600223C
:10093C00CC790132082A01F8084FF9D1013B9842D1
:10094C00F4D1002303720374037680F8203080F80E
:10095C00283080F8303080F8383080F8403030BDA6
:10096C000346C41D194601224D7A0132092A01F8A9
:10097C00085FF9D101339C42F4D10023C373C375D2
:10098C00C37780F8273080F82F3080F8373080F824
:10099C003F3080F84730E2E700F1080402460123BB
:1009AC00117A01334910092B02F8081FF8D10130D4
:1009BC008442F3D1D3E700F1080402460123117AF3
:1009CC0001334900092B02F8081FF8D10130844289
:1009DC00F3D1C4E7034600F10804194601220D7C4B
:1009EC000132082A01F8085FF9D10133A342F4D18E
:1009FC000023C0E91033B2E7034600F108041A469D
:100A0C00002192F838500131072982F84050A2F1A8
:100A1C000802F6D10133A342F1D10023C0E902331D
:100A2C009DE770B590F84930044663B1C36D002B57
:100A3C0042D0002180F84910FFF767FCFF2384F8AF
:100A4C00611084F8623000F003FD636EC01AA36E6F
:100A5C00984231D900F0FCFC002160662046FFF77B
:100A6C005CFF94F862300133DBB2072B84F8623000
:100A7C0020D194F8613094F860200133DBB29A42B3
:100A8C004FF000028CBF84F8613084F8612084F848
:100A9C006220002504F1080694F86130E16DEAB299
:100AAC002046C95C00F0B8F806F835000135082D71
:100ABC00F2D101E0002BECD070BD2DE9F04190F8A3
:100ACC00493004463BB1FFF720FC002384F8493041
:100ADC0000F0BEFC606600F0BBFC636EC01AA36E37
:100AEC00984224D900F0B4FC032160662046FFF73D
:100AFC0014FF0421002000F001F900264FF08008BB
:100B0C00C7B2F3B2BB4212D20721002000F0F6F8B4
:100B1C0005460721002000F0F1F8EBB22344C2B2E5
:100B2C00187A48FA02F202431A720136E9E7BDE874
:100B3C00F08138B590F84930044633B3FFF7E5FB44
:100B4C000221002000F0DAF801210546002000F017
:100B5C00D5F8C0EBC000C2B2EDB22946204684F8ED
:100B6C005420FFF7AFFE012D34D0022D39D025B91A
:100B7C0094F8543063BB84F85330002384F8553018
:100B8C0084F8493000F064FC606600F061FC636E30
:100B9C00C01AA36E98421AD900F05AFC94F853105C
:100BAC0060662046FFF7B9FE94F8532094F8543051
:100BBC0012F0010F23D10133DBB2072B84F8543030
:100BCC0005D194F855309BB1012384F8493038BDD8
:100BDC000123D0E794F854300BB90223CBE703235D
:100BEC00C9E794F854300BB90423C4E70523C2E7D2
:100BFC000132012384F8532084F85530E7E7013B98
:100C0C00DBB284F85430002BE1D194F85530002B32
:100C1C00DAD1013AEDE700002039C9B27D29044B45
:100C2C0088BF4139C2F1070203EBC101885C7047F0
:100C3C00A041000810B50B4C2388DA0706D50A48EA
:100C4C00FFF74FFB238823F00103238023885B07E6
:100C5C0006D50548FFF74FFB238823F004032380B8
:100C6C0010BD00BFF4000020F800002010B5214C8E
:100C7C002388D90617D52048FFF71CFB00F10A0181
:100C8C0009B21D48FFF714FB1B48FFF713FBB0F527
:100C9C007A7F04DD4FF47A711748FFF709FB23883C
:100CAC0023F01003238023885A0615D51248FFF72A
:100CBC0001FBA0F10A0109B20F48FFF7F9FA0E483F
:100CCC00FFF7F8FA002803DA00210B48FFF7F0FAD7
:100CDC00238823F04003238023889B0709D50648EB
:100CEC00FFF726FB0448FFF7E7FA238823F00203FB
:100CFC00238010BDF4000020F800002038B5054614
:100D0C000C4602F0BFF9611B013190FBF1F303FBC0
:100D1C001100284438BD000002680D4B10B59A42F2
:100D2C00044605D10B4800F099FB4FF08043186442
:100D3C002268094B9A4209D1084800F08FFB02F057
:100D4C0073F9BDE81040054800F0BEBD10BD00BFF2
:100D5C000028014098010020002401406801002077
:100D6C0030B5102495B0224600210DA802F054F99C
:100D7C00142200210DEB020002F04EF92246002154
:100D8C0001A802F049F9022401224FF48033002516
:100D9C00CDE90A23CDE911434FF4E0130AA80E92D2
:100DAC0013930C9501F058F80F23CDE905344FF44B
:100DBC008063214605A8CDE90835079501F022FA94
:100DCC004FF4004301A80194039301F0D7FA15B036
:100DDC0030BD00002DE9F04F102591B000F01AFB4A
:100DEC00FFF7BEFF2A46002109A802F015F98B4B2C
:100DFC0007219A698A4842F020029A619A69002474
:100E0C0002F020020092009A9A694FF0010A42F017
:100E1C0004029A619A694FF0020B02F004020192EB
:100E2C00019A9A69DFF8348242F008029A619B6950
:100E3C00002203F008030293029B01F007F807233A
:100E4C0009A97748CDE9093ACDE90B4B00F0B4FE7E
:100E5C00744B4046C8F800304FF46023CDE9094488
:100E6C00C8F81C300B94C8F8084088F80C4088F877
:100E7C001440C8F80440C8F810A000F0A7FC09A959
:100E8C004046CDE9095A0B9400F062FB21462A46F4
:100E9C0009A802F0C1F840F2CF22634BDFF8C091F1
:100EAC004FF48056C9E900324FF6E8524846C9E97A
:100EBC000324CDE90544C9F80840C9F8184001F0ED
:100ECC00C3FC09A94846099601F0A7FD202205A9F3
:100EDC004846CDE9052401F0A7FE2A46214605A87F
:100EEC0002F09AF821461C2209A8CDE9034402F02D
:100EFC0093F84FF080424D4D4D4FC5E9002A40F616
:100F0C00FE722846C5E90324AC60AC6101F09CFC80
:100F1C0005A92846059601F080FD284601F0C0FC85
:100F2C00284603A9CDE9034401F07EFE702209A9ED
:100F3C00CDE9092428460C220B940D9401F008FDF0
:100F4C00284600F073F93B4E3B4A304632604FF472
:100F5C000022B46034733475F2617460CDE90944D5
:100F6C000B94C6F810A000F031FC0922304609A9F8
:100F7C00CDE9092A0B9400F0EBFA4FF4E1322F493A
:100F8C003846C7E900120C21C7E90244C7E9051429
:100F9C003C61FC6101F0C0FE484601F04FFB0C21A6
:100FAC00284601F03FFE304600F0EEFC304600F0E3
:100FBC0085FB404600F082FB1B4B5A462049C3F888
:100FCC0014A0384601F0F5FE1E48FFF7B9F81D498C
:100FDC00C2B21D48FFF7CBFA194E1C4D1A4C338880
:100FEC00DA0510D523F480733380194B20461A7818
:100FFC0082F001011970174B1749012A08BF0B46E3
:10100C002B60FFF795F92B689847D4E9003004EB77
:10101C00600098470C48FFF7EFF8E0E7001002403B
:10102C00000801400024014000040040C8010020D9
:10103C005802002098010020002801400048004080
:10104C00F400002004000020F80000200000002024
:10105C00F6000020410C0008790C00086801002003
:10106C0010020020114B124A70B51A6000225A600F
:10107C00104A03F1080502F140062C46106851682D
:10108C00083203C4B2422546F7D140F20512A3F848
:10109C00482000224FF49671A3F8542083F857206F
:1010AC009966A3F86C2083F86E2070BDF8000020C0
:1010BC005D010008604100080E4B82B09A6942F055
:1010CC0001029A619A6902F001020092009ADA69AF
:1010DC0042F08052DA61DB69074A03F080530193D6
:1010EC00019B536823F0E06343F00073536002B03C
:1010FC00704700BF0010024000000140102210B5E4
:10110C00044688B00DEB0200002101F085FF236836
:10111C001A4A934213D11A4B9A6942F400729A619B
:10112C009B6903F400730193019B0022122011466A
:10113C0000F0A6FC122000F0D5FC08B010BD114A3E
:10114C009342FAD10E4B10489A6904A942F480627A
:10115C009A619A6902F480620292029A9A6942F048
:10116C0008029A619B69022203F008030393039B14
:10117C000323CDE9042300F01FFDD6E70024014032
:10118C000010024000280140000C014003680C4A8A
:10119C00934206D102F56C42936923F40073936178
:1011AC007047084A934209D102F5684293690221BB
:1011BC0023F480630448936100F0DABD704700BFEC
:1011CC000024014000280140000C0140036807B5D1
:1011DC00B3F1804F0DD103F50433DA6942F001020B
:1011EC00DA61DB6903F001030093009B03B05DF847
:1011FC0004FB0C4A9342F9D10B4B1D20DA6942F0E7
:10120C000202DA610022DB69114603F0020301934A
:10121C00019B00F035FC1D2003B05DF804EB00F0E1
:10122C0061BC00BF000400400010024010B5044631
:10123C0086B01022002102A801F0EEFE2368B3F163
:10124C00804F13D103F504339A69094842F0040224
:10125C009A619B69082203F004030193019B02230A
:10126C0002A9CDE90223059300F0A6FC06B010BD3F
:10127C000008014010B5044686B01022002102A8D7
:10128C0001F0CAFE22681B4B9A4230D103F5E433BD
:10129C00DA69194842F48022DA61DA6902A902F4A7
:1012AC0080220092009A9A69002442F008029A6106
:1012BC009B694FF4806203F008030193019B0223A6
:1012CC00CDE902230323059300F076FC4FF4006371
:1012DC00094802A9CDE90234049400F06DFC2720E2
:1012EC002246214600F0CCFB272000F0FBFB06B089
:1012FC0010BD00BF00480040000C01407047FEE7E5
:10130C00FEE7FEE7FEE770477047704700F094B8C1
:10131C0008B5044800F0A6F8BDE80840024800F003
:10132C00A1B800BF6801002098010020014801F01D
:10133C00B1B900BF1002002013B50D4C23681B6817
:10134C009B060FD50B48FEF7B7FF01228DF807005F
:10135C000DF10701204601F00DFD02222046064941
:10136C0001F027FD024801F089FD02B010BD00BF5D
:10137C0058020020F8000020F40000207047000004
:10138C00002103E00B4B5B58435004310A480B4BD4
:10139C0042189A42F6D30A4A02E0002342F8043B70
:1013AC00084B9A42F9D3FFF7E9FF01F011FEFFF762
:1013BC0011FD70471C46000800000020D8000020DA
:1013CC00D8000020B8020020FEE7000038B50E4B14
:1013DC00054618784FF47A73B3FBF0F30B4A106898
:1013EC00B0FBF3F000F08CFB044658B90F2D09D874
:1013FC00024629464FF0FF3000F042FB2046044BDA
:10140C001D6038BD0120FCE76C0000206800002046
:10141C0070000020074A08B51368032043F010033E
:10142C00136000F01BFB0020FFF7D0FFFFF744FE1A
:10143C00002008BD00200240034A044B11681B78B1
:10144C000B441360704700BFA40200206C00002006
:10145C00014B1868704700BFA40200200368D86CC9
:10146C0070477047036810B55A680446900627D534
:10147C001A68910724D5A26AD2065EBFA26A42F40A
:10148C000072A2629A6802F46022B2F5602F10D149
:10149C00227B72B95A6822F020025A60A36A23F4A4
:1014AC008073A362A36ADB045EBFA36A43F00103EB
:1014BC00A3622046FFF730FC6FF0120223681A601B
:1014CC0023685A68100630D51A6851072DD5A26AC0
:1014DC00D2065EBFA26A42F40052A2629A6802F47B
:1014EC00E042B2F5E04F0AD05A68500516D49A681B
:1014FC0002F46022B2F5602F10D1227B72B95A68C7
:10150C0022F080025A60A36A23F48053A362A36A78
:10151C00D9055EBFA36A43F00103A362204600F025
:10152C009BFA6FF00C0223681A6023685A68520603
:10153C000DD51B68DB070AD5A36A204643F480331C
:10154C00A362FFF78EFF6FF0010223681A6010BDD3
:10155C00002373B5019390F824300446012B6CD012
:10156C00012380F824304D680268062D086805EBCD
:10157C00850322D81F26556B053B9E4025EA0605A0
:10158C0000FA03F32B43536309288B6800EB4005E7
:10159C004FF0070129D9D6681E3DA94026EA010162
:1015AC00AB400B43D360A0F11003012B25D90020D5
:1015BC00002384F8243002B070BD0C2D4FF01F05B1
:1015CC0009D8166B233B9D4026EA050500FA03F368
:1015DC002B431363D8E7D66A413B9D4026EA0505A9
:1015EC0000FA03F32B43D362CEE71069A94020EA3B
:1015FC000101AB400B431361D9E7114B9A4216D151
:10160C0093681B02D3D49368102843F400039360AF
:10161C00CDD10C4B0C4A1B68B3FBF2F20A2353439B
:10162C000193019B002BC2D0019B013BF8E7A36AFD
:10163C00012043F02003A362BAE70220BBE700BFFE
:10164C00002401406800002040420F00002373B5C5
:10165C000193036804469A68D20702D5002002B0B1
:10166C0070BD9A6842F001029A60124B124A1B68D4
:10167C00B3FBF2F30193019BC3B9FFF7E9FE0646F6
:10168C0023689D6815F00105E8D1FFF7E1FE801B8A
:10169C000228F5D9A36A012043F01003A362E36A80
:1016AC0084F8245043F00103E362D8E7019B013B2B
:1016BC00E0E700BF6800002040420F0010B590F832
:1016CC0024300446012B58D0012380F82430FFF736
:1016DC00BDFF00284DD1A36A294A23F4706323F07F
:1016EC00010343F48073A3622368934204D1254918
:1016FC004A6812F4702F32D1A26A22F48012A262CC
:10170C005A68520541BFA26A22F4405242F48052F8
:10171C00A262A26A12F480521CBFE26A22F0060294
:10172C00E262002284F824206FF002021A605A68E8
:10173C0042F020025A609A6802F46022B2F5602FDF
:10174C0013D10F4A934205D1A2F58062526812F46C
:10175C00702F0AD19A6842F4A0029A6010BDA26A56
:10176C0042F48012A2624A68CBE79A6842F4801273
:10177C00F3E7002384F82430F0E70220EEE700BF03
:10178C00002801400024014038B5036804469A68DB
:10179C00D20701D4002038BD9A6822F001029A6069
:1017AC00FFF756FE054623689B68DB07F2D5FFF76B
:1017BC004FFE401B0228F6D9A36A012043F0100308
:1017CC00A362E36A43F00103E362E4E7F8B504467D
:1017DC0000286ED0836A23B9C36280F82430FFF7E7
:1017EC008DFC2046FFF7D0FFA36A13F0100362D1E3
:1017FC00002860D1A26AE569616822F4885222F05F
:10180C00020242F002022943A568A262227BB5F5CE
:10181C00807F41EA420137D0012D14BF00274FF4DD
:10182C008077267D012E06D182BBA269013A47EA58
:10183C00423646F400672268B5F5807F566826F478
:10184C00694646EA0706566097681D4E06EA070683
:10185C0046EA0106966001D0012D02D12369013BB5
:10186C001B05D56A25F470052B43D3629268154B82
:10187C001340994213D10023E362A36A23F00303BC
:10188C0043F00103A362F8BD2F46CAE7A26A42F0F7
:10189C002002A262E26A42F00102E262CBE7A36A92
:1018AC0023F0120343F01003A362E36A43F0010335
:1018BC00E3620120E7E7A36A43F01003A362F8E7B1
:1018CC00FDF7E1FFFE0E1FFF38B50446002850D08F
:1018DC00836A43F002038362FFF756FF0546002834
:1018EC0042D16FF01F02236823481A605968234ABB
:1018FC000A405A609968224A0A409A60DA6802F0F3
:10190C007F42DA601A6902F040421A6159691D4A35
:10191C0011405961996911409961D9691140D96196
:10192C00196A11401962596A11405962996A0A4040
:10193C009A62DA6A02F07F42DA62DA6A02F07F4275
:10194C00DA621A6B02F040421A635A6B02F04042A0
:10195C005A63996B014099639A6B02409A632046D3
:10196C00FFF714FCE562A562002384F824302846B6
:10197C0038BD0125FBE700BF0000C0FF00003FFFA2
:10198C00F00601FF00F0FFFF002373B5019390F800
:10199C0024300446012B5AD0012380F82430FFF761
:1019AC00F3FE0546002832D1A36A022023F48853A3
:1019BC0023F0020343F00203A362264B1E6800F0DF
:1019CC0055FDB6FBF0F676000196019B1BBB20463D
:1019DC00FFF73CFE2268936843F008039360FFF71F
:1019EC0037FD064623689A68120718D49A6842F0A5
:1019FC0004029A60FFF72CFD064623689B685B0780
:101A0C001FD4A36A23F0030343F00103A362002352
:101A1C0084F8243012E0019B013B0193D5E7FFF7DA
:101A2C0017FD801B0A28DDD9A36A012523F01203B8
:101A3C0043F01003A362002384F82430284602B03C
:101A4C0070BDFFF705FD801B0A28D6D9ECE70225EF
:101A5C00F4E700BF6800002070470000074903024C
:101A6C00CA6803F4E06322F4E0621204120C13431C
:101A7C0043F0BF6343F40033CB60704700ED00E0EC
:101A8C00164B30B5DC68C4F30224C4F10703251DE2
:101A9C00042B28BF0423062D4FF0FF3598BF0024DC
:101AAC0005FA03F388BF033C21EA0303A34005FABC
:101ABC0004F422EA0402002843EA0203ACBF00F15A
:101ACC006040074A4FEA0313DBB2ABBF00F561403D
:101ADC0000F00F0080F80033135430BD00ED00E02F
:101AEC0014ED00E0002808DB0123420900F01F0080
:101AFC0003FA00F0014B43F82200704700E100E0CC
:101B0C000138B0F1807F0AD2F021064B064A5860AA
:101B1C0082F823100020072298601A607047012079
:101B2C00704700BF10E000E000ED00E008B590F851
:101B3C002130022B03D004238363012008BD0368EA
:101B4C001A6822F00E021A601A6822F001021A605A
:101B5C00174A93421CD0143293421BD01432934236
:101B6C001AD0143293421AD0143293421AD014322F
:101B7C0093420CBF4FF480134FF080730D4A5360A7
:101B8C004FF480730384436B7BB198470020D5E7F7
:101B9C000123F3E71023F1E74FF48073EEE74FF4E2
:101BAC008053EBE74FF48033E8E71846C6E700BFF5
:101BBC0008000240000002402DE9F74F00221646B3
:101BCC00644BDFF8A0C1DFF8A0E10D6835FA06F42C
:101BDC0002D103B0BDE8F08F4FF0010808FA06F807
:101BEC0005EA080438EA05057CD14D68032D07D8B1
:101BFC00013D022D00F28880DFE805F0969BA100E4
:101C0C00122D00F099806FD8112D00F08F80FF2CD1
:101C1C0098BF82464FF00F0988BF00F1040A4FEAC3
:101C2C008605DAF8008088BF203D09FA05FB28EA12
:101C3C000B0802FA05F548EA0505CAF80050D1F878
:101C4C0004A01AF0805F4DD0434F26F00308BD6905
:101C5C0008F1804845F00105BD61BD6908F5803883
:101C6C0005F00105019506F0030B019D4FEA8B0B66
:101C7C00D8F8085009FA0BF925EA0909374DA8429A
:101C8C0061D005F58065A8425FD005F58065A84256
:101C9C005DD005F58065A8420CBF0325042505FA27
:101CAC000BF545EA0905C8F808501D681AF4803F81
:101CBC0014BF2543A5431D605D681AF4003F14BF93
:101CCC002543A5435D609D681AF4801F14BF25430E
:101CDC00A5439D60DD681AF4001F14BF2C4325EA50
:101CEC000404DC60013670E71D4FBD420CD017D8E0
:101CFC00DFF878904D4507D009F570294D4503D094
:101D0C00A9F580194D4582D18A68D2B1012A08BF44
:101D1C00C0F810804FF0080218BFC0F8148076E7A6
:101D2C006545F1D07545EEE7CA6870E7CA680432BC
:101D3C006DE7CA6808326AE7CA680C3267E70022A6
:101D4C0065E7042263E70025A9E70125A7E702253B
:101D5C00A5E700BF0004014000100240000801404C
:101D6C000000221000003110000032100000121090
:101D7C002DE9F74F4FF0040B00224FF0010A4FF002
:101D8C000F0800EB0B0301932E4B31FA02F402D136
:101D9C0003B0BDE8F08F0AFA02F70F4049D022F0E9
:101DAC00030404F18044284D04F5803402F0030C44
:101DBC00A6684FEA8C0C08FA0CF9A84209EA060E40
:101DCC0039D005F58065A84237D005F58065A84265
:101DDC0035D005F58065A8420CBF0325042505FA0E
:101DEC000CF575456FEA07060FD1A56825EA0905BC
:101DFC00A5601C6834401C605C6834405C609C6866
:101E0C0034409C60DC683440DC60FF2F94BF074694
:101E1C00019F4FEA82043D6888BF203C08FA04FC0D
:101E2C0025EA0C050BFA04F425433D60C4682640F2
:101E3C00C6600132A9E70025D1E70125CFE70225CD
:101E4C00CDE700BF00040140000801400AB1016168
:101E5C0070470904FBE700002DE9F341054638B350
:101E6C000368DB0710D42B689F075ED42B68190717
:101E7C0000F195802B685A0700F1BF80E8690028B3
:101E8C0040F02C81002029E08F4C636803F00C0398
:101E9C00042B07D0636803F00C03082B0AD163688A
:101EAC00DE0307D523689C03DDD56B68002BDAD1E4
:101EBC00012013E06B68B3F5803F12D1236843F423
:101ECC0080332360FFF7C4FA064623689803CAD40C
:101EDC00FFF7BEFA801B6428F7D9032002B0BDE8D7
:101EEC00F0819BB9236823F480332360236823F4A7
:101EFC0080232360FFF7ACFA064623689903B2D51A
:101F0C00FFF7A6FA801B6428F7D9E6E7B3F5A02FF4
:101F1C00236803D143F480232360CFE723F4803379
:101F2C002360236823F48023CBE7674C636813F0AA
:101F3C000C0F07D0636803F00C03082B10D16368F7
:101F4C00DA030DD423689B0702D52B69012BAFD183
:101F5C0023686A6923F0F80343EAC203236085E728
:101F6C002A695A4B6AB101221A60FFF771FA0646C8
:101F7C0023689F07ECD4FFF76BFA801B0228F7D974
:101F8C00ABE71A60FFF764FA0646236898077FF5FB
:101F9C006DAFFFF75DFA801B0228F6D99DE7AA69A1
:101FAC00494E4B4BDAB101221A60FFF751FA044645
:101FBC00736A9B070DD54FF4FA52464B1B68B3FB63
:101FCC00F2F3019300BF019B5A1E0192002BF9D131
:101FDC0050E7FFF73DFA001B0228E9D97DE71A60AC
:101FEC00FFF736FA0446736A9F077FF543AFFFF796
:101FFC002FFA001B0228F6D96FE7334CE369D8009F
:10200C0024D40127E36943F08053E361E36903F0CF
:10201C0080530093009B304E3368D90518D5EB687C
:10202C00012B26D1236A43F001032362FFF710FA38
:10203C0041F288380646236A9B073FD5002F3FF4B0
:10204C001DAFE36923F08053E36117E70027E2E754
:10205C00336843F480733360FFF7FAF980463368D2
:10206C00DA05DCD4FFF7F4F9A0EB08006428F6D904
:10207C0033E7ABB9236A41F2883823F001032362BA
:10208C00236A23F004032362FFF7E2F90646236A6E
:10209C009807D3D5FFF7DCF9801B4045F7D91CE72F
:1020AC00052B236A03D143F004032362BAE723F020
:1020BC0001032362236A23F00403B6E7FFF7C8F990
:1020CC00801B4045B7D908E700100240000042428F
:1020DC008004424268000020007000402A4B5A687D
:1020EC001C4602F00C02082A3DD00023274E022881
:1020FC0033602BD1FFF7ACF90746236899011FD445
:10210C002B6AB3F5803F05D16268A96822F40032CE
:10211C000A436260696A62680B4322F474121343C7
:10212C00636001233360FFF793F9054623689A0136
:10213C003FF5A8AEFFF78CF9401B0228F6D9CCE688
:10214C00FFF786F9C01B0228D7D9C6E6FFF780F93E
:10215C00054623689B017FF595AEFFF779F9401B87
:10216C000228F6D9B9E601283FF4B8AE5B682A6AB2
:10217C0003F4803191427FF49BAE6A6A03F47013CE
:10218C0093423FF47FAE93E600100240600042425F
:10219C0030B5184B87B002AC03F110052246186815
:1021AC005968083303C2AB421446F7D140F20123FD
:1021BC001149ADF804304B6803F00C02082A17D112
:1021CC00C3F3834206A80244DB0312F8102C0CD58F
:1021DC004B680A48C3F34043504306AA134413F810
:1021EC00143CB0FBF3F007B030BD05485043FAE7A0
:1021FC000248F8E7B04400080010024000127A00D0
:10220C0000093D002DE9F0410D46044610B90120AE
:10221C00BDE8F081444A136803F007038B4228D3CE
:10222C0021688E0730D4CA0743D43F4A136803F0A1
:10223C000703AB4265D822683C4D12F0040F6CD1F9
:10224C00130706D56B68226923F4605343EAC20373
:10225C006B60FFF79DFF6B68354AC3F30313D35CC8
:10226C00D840344B1860344B1868FFF7AFF8002097
:10227C00CEE7136823F007030B431360136803F0D6
:10228C0007038B42C3D1CBE7284B11F0040F1EBFC1
:10229C005A6842F4E0625A60080742BF5A6842F436
:1022AC0060525A605A68A06822F0F00202435A60E9
:1022BC00B9E762681D4E012A33681AD113F4003F46
:1022CC00A5D0736841F2883823F00303134373607D
:1022DC00FFF7BEF807467368626803F00C03B3EBB4
:1022EC00820FA2D0FFF7B4F8C01B4045F3D90320EE
:1022FC008EE7022A02D113F0007FE1E713F0020F00
:10230C00DEE7136823F007032B431360136803F015
:10231C000703AB427FF47BAF8DE76B68E16823F476
:10232C00E0630B436B608BE700200240001002401F
:10233C00984400086800002070000020044B054AF7
:10234C005B68C3F30223D35C034A1068D840704720
:10235C0000100240A844000868000020044B054A05
:10236C005B68C3F3C223D35C034A1068D840704740
:10237C0000100240A84400086800002003682DE902
:10238C00F341D907054620D5354CE369DA0032D440
:10239C000127E36943F08053E361E36903F0805361
:1023AC000193019B2F4E3368DB0526D5236A13F46A
:1023BC00407336D1236A6A6823F440731343236253
:1023CC001FB1E36923F08053E3612868830706D5C6
:1023DC002349AB684A6822F440421A434A6010F021
:1023EC0010001BD01E4AE9685368002023F48003B8
:1023FC000B43536012E00027D4E7336843F4807337
:10240C003360FFF725F880463368D805CED4FFF744
:10241C001FF8A0EB08006428F6D9032002B0BDE831
:10242C00F0816A6802F440729A42C3D001200E4ACD
:10243C00236A1060002023F4407110602162D907D8
:10244C00B8D5FFF705F841F288380646236A9A0793
:10245C00B0D4FEF7FDFF801B4045F7D9DDE700BF88
:10246C00001002400070004040044242024670B529
:10247C00344B86B002AD03F110062C46186859682F
:10248C00083303C4B3422546F7D140F20123022A94
:10249C00ADF8043049D0102A03D0012A26D00020F0
:1024AC0038E0294B5968186810F0807032D0C1F3AD
:1024BC00834206A8024412F8100CCA0341BF5A68A2
:1024CC0006A9C2F34042521844BF12F8141C1F4A0A
:1024DC005B684CBFB2FBF1F21D4A5B0202FB00F0E1
:1024EC0018D403234000B0FBF3F013E040F20231A8
:1024FC00154A136A1940B1F5817F1FD003F440735C
:10250C00B3F5007F08D149F64043506A10F0020041
:10251C0018BF184606B070BDB3F5407FBFD1106828
:10252C004FF2244310F40030F2E7FFF717FF064B8D
:10253C005B68C3F3813301335B00D4E74FF4004095
:10254C00E8E700BFB04400080010024000127A0017
:10255C0000093D00036A70B523F001030362036AAE
:10256C00446882690D6822F073022A438D6823F057
:10257C0002032B430A4DA8420BD1CD6823F008036C
:10258C002B4324F44074D1E90556354323F004035E
:10259C002C43446082614A684263036270BD00BF91
:1025AC00002C0140036A70B523F480730362036A44
:1025BC004468C2690D6822F073022A438D6823F4C3
:1025CC00007343EA05230B4DA8420DD1CD6823F4CB
:1025DC00006343EA052324F44054D1E905563543FE
:1025EC0023F4806344EA05144460C2614A68C26300
:1025FC00036270BD002C0140036A30B523F4805394
:10260C000362036A4468C2690D6822F4E64242EA36
:10261C0005228D6823F4005343EA0533064DA84286
:10262C0002BF4D6924F4804444EA85144460C261BD
:10263C004A680264036230BD002C014090F83D30C2
:10264C00012B1CD102230F4A80F83D3003689342C2
:10265C000AD0B3F1804F07D0A2F59432934203D045
:10266C0002F58062934204D19A6802F00702062AAE
:10267C0003D01A6842F001021A6000207047012052
:10268C00704700BF002C014070477047704770477F
:10269C0070477047036810B51A69044691070ED548
:1026AC00DA6892070BD56FF002021A6101220277E9
:1026BC009B699B0777D0FFF7EAFF002323772368FA
:1026CC001A69500710D5DA6851070DD56FF004025E
:1026DC001A61022222779B69204613F4407F68D04E
:1026EC00FFF7D5FF0023237723681A6912070FD54C
:1026FC00DA6810070CD56FF008021A6104222277F1
:10270C00DB69204699075AD0FFF7C1FF00232377D6
:10271C0023681A69D20610D5DA68D0060DD56FF089
:10272C0010021A6108222277DB69204613F4407FDD
:10273C004BD0FFF7ACFF0023237723681A69D1072E
:10274C0008D5DA68D20705D56FF0010220461A6168
:10275C00FFF79BFF23681A69100608D5DA68110683
:10276C0005D56FF0800220461A6100F08CFA2368C0
:10277C001A69520608D5DA68500605D56FF0400282
:10278C0020461A61FFF785FF23681A69910622D546
:10279C00DA6892061FD56FF020022046BDE8104083
:1027AC001A6100F06FBAFFF771FF2046FFF770FF58
:1027BC0083E7FFF76BFF2046FFF76AFF92E7FFF70F
:1027CC0065FF2046FFF764FFA0E7FFF75FFF204699
:1027DC00FFF75EFFAFE710BD1A4A036890420AD0BC
:1027EC00B0F1804F07D0A2F59432904203D002F59D
:1027FC008062904215D14A6823F070031343114A4A
:10280C0090420AD0B0F1804F07D0A2F5943290429A
:10281C0003D002F58062904203D1CA6823F440735E
:10282C0013434A6923F08003134303608B68C3622C
:10283C000B688362034B984204BF0B69036301234B
:10284C0043617047002C014010B5044630B390F83A
:10285C003D3003F0FF021BB980F83C20FEF7B6FCBC
:10286C000223206884F83D30211DFFF7B5FF0123BA
:10287C00002084F8463084F83E3084F83F3084F8E9
:10288C00403084F8413084F8423084F8433084F886
:10289C00443084F8453084F83D3010BD0120FCE70D
:1028AC0010B5044630B390F83D3003F0FF021BB96D
:1028BC0080F83C20FFF7E8FE0223206884F83D30C6
:1028CC00211DFFF789FF0123002084F8463084F88E
:1028DC003E3084F83F3084F8403084F8413084F83E
:1028EC00423084F8433084F8443084F8453084F81E
:1028FC003D3010BD0120FCE7036A70B523F01003D6
:10290C000362036A446882690D6822F4E64242EA73
:10291C0005228D6823F0200343EA05130B4DA842D2
:10292C000DD1CD6823F0800343EA051324F44064F1
:10293C00D1E90556354323F0400344EA850444604D
:10294C0082614A688263036270BD00BF002C014043
:10295C0038B590F83C300446012B52D00123082A9C
:10296C0080F83C303CD006D8C2B1042A27D00020D5
:10297C0084F83C0038BD0C2AF9D10068FFF73CFE06
:10298C0023680969DA6942F40062DA61DA6922F4CF
:10299C008062DA61DA6942EA012230E00068FFF70E
:1029AC00D9FD236809699A6942F008029A619A690B
:1029BC0022F004029A619A690A439A61D7E7006887
:1029CC00FFF79AFF236809699A6942F400629A61D9
:1029DC009A6922F480629A619A6942EA0122ECE7D0
:1029EC000068FFF7DFFD23680969DA6942F0080225
:1029FC00DA61DA6922F00402DA61DA690A43DA612F
:102A0C00B5E70220B6E710B584680A4324F47F4486
:102A1C0042EA03222243826010BD70B590F83C302C
:102A2C000446012B4FF0020027D0012384F83D000F
:102A3C00206884F83C30836823F47F4323F07703C9
:102A4C0083600B68602B4DD032D8402B62D015D8E8
:102A5C00202B03D009D833F0100208D1826822F061
:102A6C007002134343F0070320E0302BF6D0012310
:102A7C00002084F83D3084F83C0070BD502BF6D11A
:102A8C004A68CE68016A056A21F00A0125F0010541
:102A9C00056283690A4323F0F00343EA061383615A
:102AAC000262836823F0700343F057038360DEE710
:102ABC00702B0CD0B3F5005FD9D1CB68D1E90121D3
:102ACC00FFF7A1FF2268936843F4804308E0CB68CA
:102ADC00D1E90121FFF797FF2268936843F0770350
:102AEC009360C4E74D68CE68016A21F01001016261
:102AFC008269036A22F4704223F0A00343EA0513AF
:102B0C0042EA063282610362836823F0700343F069
:102B1C006703CBE74A68CE68016A056A21F00A01AF
:102B2C0025F00105056283690A4323F0F00343EAAB
:102B3C00061383610262836823F0700343F047033A
:102B4C00B4E710B50124036A01F01F018C4023EA9D
:102B5C0004030362036A8A401A43026210BD000038
:102B6C0010B5044629B990F83E30012B2BD001202A
:102B7C0010BD04290BD190F83F30012BF7D1022363
:102B8C00026880F83F30D36843F0040322E0082940
:102B9C000BD190F84030012BE9D10223026880F868
:102BAC004030D36843F0080314E090F84130012B17
:102BBC00DDD102230C2980F841300CD10268D36896
:102BCC0043F0100306E00223026880F83E30D3681D
:102BDC0043F00203D36001222068FFF7B2FF2368A1
:102BEC000E4A93420AD15A6C42F400425A649A68D3
:102BFC0002F00702062A0BD10020B9E7B3F1804F8F
:102C0C00F5D0074A9342F2D002F580629342EED09F
:102C1C001A6842F001021A60EEE700BF002C014076
:102C2C0000040040FFF79CBF30B590F83C300246E2
:102C3C00012B4FF0020022D0136882F83D005C6833
:102C4C000D6824F070042C4398685C600C4CA34213
:102C5C000AD0B3F1804F07D0A4F59434A34203D02B
:102C6C0004F58064A34204D1496820F0800001433C
:102C7C0099600123002082F83D3082F83C0030BD81
:102C8C00002C0140704770470368DA6822F4907298
:102C9C00DA605A6922F001025A61202380F83A3036
:102CAC007047000010B504460368C1681A6922F425
:102CBC0040520A431A6182680069D968024360690C
:102CCC0021F4B05121F00C0102430A43DA605A6935
:102CDC00A16922F440720A435A610E4A934215D1FB
:102CEC00FFF73CFB19234343626820689200B3FB57
:102CFC00F2F36422B3FBF2F102FB11331B0132330A
:102D0C00B3FBF2F303EB0113836010BDFFF716FB6B
:102D1C00E8E700BF0038014010B5044640B390F816
:102D2C00393003F0FF021BB980F83820FEF7A2FA05
:102D3C002423226884F83930D368204623F40053C6
:102D4C00D360FFF7AFFF236800201A6922F490428A
:102D5C001A615A6922F02A025A61DA6842F4005266
:102D6C00DA602023E06384F8393084F83A3010BDFF
:102D7C000120FCE790F83930202B18D1A9B1A2B171
:102D8C0090F83830012B12D0C28400238284212287
:102D9C0001620168C36380F8383080F83920CA6852
:102DAC00184642F08002CA6070470120704702202A
:102DBC00704790F83A30202B20D1E9B1E2B190F86D
:102DCC003830012B1AD0C285828500232222C3639E
:102DDC0080F83A20026880F838308162D168184651
:102DEC0041F48071D160516941F001015161D168A8
:102DFC0041F02001D16070470120704702207047DC
:102E0C007047704710B590F83A30222B33D1816857
:102E1C00836AB1F5805F026820D1016909BB5268F1
:102E2C00C2F3080223F8022BC48D8362013CA4B2C6
:102E3C00C4858CB90368DA6822F02002DA60DA689B
:102E4C0022F48072DA605A6922F001025A6120235E
:102E5C0080F83A30FFF7D5FF00200DE039B9016951
:102E6C0029B95268D2B21A70836A0133DCE752680E
:102E7C0002F07F02F7E7022010BD7047036870B5BF
:102E8C001A6804461607D9685D6907D196065CD5A1
:102E9C008D065AD5BDE87040FFF7B4BF05F00100B0
:102EAC0001F49075054350D0D60705D5CD0542BF2A
:102EBC00E36B43F00103E363530704D518B1E36BF1
:102ECC0043F00203E363960704D518B1E36B43F0B8
:102EDC000403E363150707D501F0200303431EBF6A
:102EEC00E36B43F00803E363E36B4BB3900604D549
:102EFC00890602D52046FFF785FF236820465B69CB
:102F0C00E56B03F0400305F008051D4319D0FFF7EE
:102F1C00BBFE23685A6952060FD55A69606B22F0C2
:102F2C0040025A6148B1254B4363FEF7FFFD38B1AF
:102F3C00606BBDE87040436B18472046FFF79DFF60
:102F4C0070BDFFF79AFFE563FAE7160626D50D0666
:102F5C0024D594F83920212AF2D1A168226AB1F53E
:102F6C00805F16D12169A1B932F8021BC1F30801A7
:102F7C0059602262E28C013A92B2E284002ADFD1DB
:102F8C00DA6822F08002DA60DA6842F04002DA6035
:102F9C00D6E7511C216212785A60EBE75006CFD568
:102FAC004A06CDD5DA68204622F04002DA602023AA
:102FBC0084F83930FFF724FFC2E700BFCD2F00089B
:102FCC0008B50023406AC385C384FFF756FF08BDCC
:102FDC0070B500260C4D0D4C641BA410A64209D1F3
:102FEC0001F0ACF800260A4D0A4C641BA410A64252
:102FFC0005D170BD55F8043B98470136EEE755F8FE
:10300C00043B98470136F2E71046000810460008CA
:10301C00104600081846000803460244934200D1AB
:10302C00704703F8011BF9E738B5104B04461D68CF
:10303C00AB6BB3B9182000F095F80246A86320B921
:10304C0042210B4B0B4800F05DF80B490B4BC0E9D0
:10305C0000130B4B002183600B2383810120C2E9F9
:10306C0004010022AB6B1C615A6138BD7400002056
:10307C00C8440008DF4400080E33CDAB34126DE6B3
:10308C00ECDE0500174B10B51C68A36BB3B9182008
:10309C0000F068F80246A06320B94E21124B134889
:1030AC0000F030F81249134BC0E90013124B002109
:1030BC0083600B2383810120C2E90401A16B0F48BB
:1030CC000A694B6950430E4C04FB0300A2FB043409
:1030DC005A1C044444F10000C1E9042020F00040D3
:1030EC0010BD00BF74000020C8440008DF44000875
:1030FC000E33CDAB34126DE6ECDE05002DF45158D9
:10310C002D7F954C1FB514461A46094B05461B6876
:10311C00D8684CB1074BCDE9013400912B460649D8
:10312C0000F00EF800F08AFC044B1C46F3E700BFDD
:10313C00740000203E4500084B4500087945000806
:10314C000EB403B5014603AB054853F8042B0068D5
:10315C00019300F0DDF802B05DF804EB03B07047AA
:10316C0074000020024B0146186800F04FB800BFF5
:10317C007400002038B50546002943D051F8043CB2
:10318C000C1F002BB8BFE41800F08CFE1E4A13680D
:10319C00104633B9636014602846BDE8384000F02F
:1031AC0087BEA3420AD921686218934201BF1A68EC
:1031BC005B685218226063600460EDE71A465B6836
:1031CC000BB1A342FAD911685018A0420BD1206858
:1031DC000144501883421160DED118685B680144C9
:1031EC0011605360D8E702D90C232B60D4E7206818
:1031FC0021188B4201BF19685B6809182160636054
:10320C005460C9E738BD00BF98020020F8B5CD1C4A
:10321C0025F0030508350C2D38BF0C25002D06466E
:10322C0001DBA94203D90C2333600020F8BD00F068
:10323C0039FE21490A6814469CB9204F3B6823B9D2
:10324C002146304600F02AFB38602946304600F013
:10325C0025FB431C23D10C233046336000F028FEA1
:10326C00E3E723685B1B17D40B2B03D923601C44A7
:10327C00256004E06368A2420CBF0B6053603046CB
:10328C0000F016FE04F10B00231D20F00700C21AFB
:10329C00CCD01B1AA350C9E722466468CCE7C41CE7
:1032AC0024F00304A042E3D0211A304600F0F6FAD1
:1032BC000130DDD1CFE700BF980200209C02002036
:1032CC00936810B4013B002B936007DA9469A34216
:1032DC0001DB0A2902D110BC00F0F0BA1368581CAB
:1032EC0010601970084610BC7047F8B506460F46BA
:1032FC001446D518AC4201D1002007E03A463046BE
:10330C0014F8011BFFF7DCFF431CF3D1F8BD0000E0
:10331C002DE9F04F0D461446984606469DB018B15F
:10332C0083690BB900F0ACFC894B9D421BD17568CD
:10333C006B6ED90705D4AB899A0502D4A86D00F041
:10334C003DFDAB891B0701D52B69EBB929463046EE
:10335C0000F006FBC0B16B6EDC070ED54FF0FF30F2
:10336C001DB0BDE8F08F7B4B9D4201D1B568DFE706
:10337C00794B9D4208BFF568DAE7AB899805EDD427
:10338C00A86D00F01CFDE9E70023099320238DF8BC
:10339C00293030234FF00109CDF80C80DFF8BC81C7
:1033AC008DF82A3023469A4613F8012B0AB1252AA8
:1033BC00F9D1BAEB040B0BD05B46224629463046BA
:1033CC00FFF793FF013000F0AA80099A5A44099242
:1033DC009AF80030002B00F0A28000234FF0FF324F
:1033EC00CDE905230AF1010A049307938DF85330B4
:1033FC001A935446052214F8011B584800F044FD5A
:10340C00049AD8B9D10644BF20238DF85330130742
:10341C0044BF2B238DF853309AF800302A2B15D04B
:10342C00544600204FF00A0C079A214611F8013B34
:10343C00303B092B4ED9B0B1079214E0A0EB080336
:10344C0009FA03F31343A2460493D2E7039B191D15
:10345C001B680391002BBBBF5B4242F00202079337
:10346C000793B8BF049223782E2B0CD163782A2BA8
:10347C0035D1039B02341A1D1B680392002BB8BF75
:10348C004FF0FF330593DFF8E4A003225046217878
:10349C0000F0FAFC40B14023A0EB0A0003FA00F064
:1034AC00049B01340343049314F8011B06222C489B
:1034BC008DF8281000F0E8FC00283FD0294B1BBBEE
:1034CC00039B073323F0070308330393099B3B4407
:1034DC00099367E70C4601200CFB0232A5E7002399
:1034EC004FF00A0C194601340593204610F8012BB5
:1034FC00303A092A03D9002BC5D00591C3E70446FD
:10350C0001230CFB0121F0E703AB00932A46304664
:10351C00154B04A9AFF300800746781CD6D16B6E0F
:10352C00D90705D4AB899A0502D4A86D00F047FCE5
:10353C00AB895B063FF512AF099811E703AB00931B
:10354C002A463046084B04A900F082F8E4E700BF95
:10355C00D0450008F0450008B04500087A45000841
:10356C008445000800000000F73200088045000880
:10357C002DE9F047164699468A680B69074693422F
:10358C00B8BF1346336091F843200C46DDF8208019
:10359C000AB1013333602368990642BF33680233A2
:1035AC003360256815F0060506D104F1190AE368A5
:1035BC0032689B1AAB4228DC94F84320131E226815
:1035CC0018BF012392062DD44946384604F1430214
:1035DC00C047013020D02368E56803F00603042BB4
:1035EC0018BF002532684FF00006A36808BFAD1A5B
:1035FC00226908BF25EAE5759342C4BF9B1AED18F2
:10360C001A34B5421AD1002008E00123524649462B
:10361C003846C047013003D14FF0FF30BDE8F0878A
:10362C000135C4E73020E11881F843005A1C94F8A6
:10363C0045102244023382F84310C5E70123224689
:10364C0049463846C0470130E6D00136D9E700007C
:10365C002DE9FF470C46277E9146782F80469A46E7
:10366C000C9904F1430207D8622F0AD8002F00F0FE
:10367C00D980582F00F0A48004F1420684F84270DF
:10368C003AE0A7F16303152BF6D801A050F823F00C
:10369C00F53600080937000885360008853600081D
:1036AC00853600088536000809370008853600087D
:1036BC00853600088536000885360008173800085E
:1036CC0039370008F93700088536000885360008B8
:1036DC003938000885360008393700088536000867
:1036EC0085360008013800080B6804F142061A1DE3
:1036FC001B680A6084F842300123A4E0256808683E
:10370C002E0600F104030AD505680B60002D03DAC0
:10371C002D236D4284F843300A235E4819E015F0DE
:10372C00400F05680B6018BF2DB2EFE70B682568DA
:10373C00181D0860280601D51D6802E06906FBD536
:10374C001D886F2F0CBF08230A235248002184F8D0
:10375C0043106668002EA8BF2168A660A4BF21F0A4
:10376C00040121600DB9002E4DD01646B5FBF3F1C6
:10377C0003FB1157C75D06F8017D2F46BB420D4672
:10378C00F4D9082B0BD12368DF0708D523696168AE
:10379C009942DEBF302306F8013C06F1FF36921B3E
:1037AC0022614B4621464046CDF800A003AAFFF704
:1037BC00DFFE01304CD14FF0FF3004B0BDE8F08794
:1037CC00344884F845700E68236856F8045B1F066D
:1037DC000E6014D5D90744BF43F0200323601DB9F4
:1037EC00236823F0200323601023AFE7236843F002
:1037FC00200323607823284884F84530E3E75E06ED
:10380C0048BFADB2E6E71646BBE70B6826681D1D40
:10381C0060690D6035061B6801D5186002E0710601
:10382C00FBD51880002316462361BAE70B681A1DD6
:10383C000A601E6800213046626800F025FB08B162
:10384C00801B606063682361002384F84330A8E721
:10385C003246494640462369D0470130ABD02368F5
:10386C009B0713D4E068039B9842B8BF1846A4E7A3
:10387C000123324649464046D04701309BD00135A2
:10388C00E36803995B1AAB42F2DCEBE7002504F129
:10389C001906F5E78B4500089C45000838B5002350
:1038AC00054D044608462B6000F030FC431C02D149
:1038BC002B6803B1236038BDB4020020F8B50E4666
:1038CC001446054618B183690BB900F0D9F9214BA0
:1038DC009C422BD16C68A369A360A3891A072FD5CE
:1038EC0023696BB323692068F6B2C01A6369374643
:1038FC00834204DC2146284600F02EF930BBA36835
:10390C000130013BA36023685A1C22601E7063695E
:10391C00834204D0A389DB0706D50A2E04D12146A5
:10392C00284600F019F988B93846F8BD0A4B9C4274
:10393C0001D1AC68CFE7094B9C4208BFEC68CAE7E1
:10394C002146284600F00CF80028CBD04FF0FF376A
:10395C00EAE700BFD0450008F0450008B045000874
:10396C00324B70B51D6806460C4625B1AB6913B9D0
:10397C00284600F085F92E4B9C420FD16C68A38928
:10398C00B4F90C2019072CD4DD0611D409233360AB
:10399C0042F040034FF0FF30A3813EE0254B9C42A8
:1039AC0001D1AC68EBE7244B9C4208BFEC68E6E71E
:1039BC00580712D5616B41B104F14403994202D00E
:1039CC003046FFF7D7FB00236363A38923F024035E
:1039DC00A3810023636023692360A38943F0080358
:1039EC00A38123694BB9A38903F42073B3F5007F3A
:1039FC0003D02146304600F007FAA089B4F90C2018
:103A0C0010F001030AD00023A36063695B42A36139
:103A1C00236943B910F08000BAD170BD810758BF3B
:103A2C006369A360F4E70020F7E700BF740000208F
:103A3C00D0450008F0450008B0450008062008B540
:103A4C0000F064FA012000F077FB00008A892DE970
:103A5C00F041054610070C4658D44B68002B05DC8A
:103A6C000B6C002B02DC0020BDE8F081E66A002E16
:103A7C00F9D0002312F480522F682B6032D0606D85
:103A8C00A3895A0705D56368C01A636B0BB1236C05
:103A9C00C01A00230246E66A2846216AB047431C36
:103AAC00A38906D129681D292CD82A4ACA40D607D1
:103ABC0028D5002262602269D904226004D5421CF8
:103ACC0001D12B6803B96065616B2F600029CAD0E6
:103ADC0004F14403994202D02846FFF74BFB002027
:103AEC006063C1E7216A01232846B047411CC7D156
:103AFC002B68002BC4D01D2B01D0162B01D12F60AD
:103B0C00B1E7A38943F04003A381ADE70F69002F10
:103B1C00A9D0930718BF00230E6808BF4B69A6EB0A
:103B2C0007080F608B60B8F1000F9CDD43463A46E6
:103B3C002846216AA66AB047002806DCA3894FF004
:103B4C00FF3043F04003A3818EE70744A8EB000845
:103B5C00E9E700BF0100402038B50B6905460C466B
:103B6C0013B90025284638BD18B183690BB900F08C
:103B7C0087F8144B9C421BD16C68B4F90C30002BA9
:103B8C00EFD0626ED00704D4990502D4A06D00F07A
:103B9C0015F928462146FFF759FF636E0546DA07EB
:103BAC00E0D4A3899B05DDD4A06D00F008F9D9E71A
:103BBC00054B9C4201D1AC68DFE7044B9C4208BF2B
:103BCC00EC68DAE7D0450008F0450008B04500087D
:103BDC00002310B50446C0E90033C0E90433836008
:103BEC0081814366C2818361194608225C30FFF7EC
:103BFC0013FA054B24626362044BA362044BE36229
:103C0C00044B236310BD00BF513F0008733F0008F5
:103C1C00AB3F0008CF3F0008014900F0AFB800BF30
:103C2C00653B000870B568254A1E55430E4605F1E4
:103C3C007401FFF7EBFA044640B10021C0E900160D
:103C4C000C30A06005F16802FFF7E6F9204670BD64
:103C5C00014800F0B3B800BFB0020020014800F0EA
:103C6C00AEB800BFB0020020014800F0A7B800BFFA
:103C7C00AB020020014800F0A2B800BFAB0200204C
:103C8C0010B50446FFF7F0FFA3691BB1BDE8104067
:103C9C00FFF7F0BFC4E912332365134B134A1B68BB
:103CAC00A262A34208BF0123204608BFA36100F013
:103CBC001FF86060204600F01BF8A060204600F062
:103CCC0017F800220421E0606068FFF781FF0122F1
:103CDC000921A068FFF77CFF02221221E068FFF7A0
:103CEC0077FF0123A361D1E7C4440008253C0008F9
:103CFC00F8B50746FFF7ACFF1E4B1E68B36913B946
:103D0C003046FFF7BDFF4836D6E90134013B03D5F9
:103D1C0033680BB33668F7E7B4F90C50D5B9164BCA
:103D2C0004F15800E360656600F047F8FFF796FF72
:103D3C0008222946C4E90155C4E904552560A5614A
:103D4C0004F15C00FFF768F9C4E90D55C4E912559C
:103D5C002046F8BD6834D9E704213846FFF762FFE6
:103D6C00044630600028D5D1FFF778FF0C233B6068
:103D7C00EEE700BFC44400080100FFFF2DE9F84343
:103D8C0006468846002700F14804D4E90195B9F1AC
:103D9C00010905D52468002CF7D13846BDE8F88315
:103DAC00AB89012B07D9B5F90E30013303D0294665
:103DBC003046C04707436835E9E77047704770479E
:103DCC0070B50E46B1F90E10144600291D4696B07A
:103DDC0007DA00232B60B3891A0610D44FF48063E2
:103DEC000EE06A4600F014F90028F2DB019A02F4A6
:103DFC007042A2F500535A425A412A60EEE7402322
:103E0C000020236016B070BD8B8973B59D070646E4
:103E1C000C4607D504F1470323602361012363613A
:103E2C0002B070BD6A4601ABFFF7CAFF00990546A8
:103E3C003046FFF7EBF948B9B4F90C309A05EFD4DA
:103E4C0023F0030343F00203A381E3E70D4BB362BA
:103E5C00A389206043F08003A381009B20616361F0
:103E6C00019B5BB13046B4F90E1000F0E3F828B1B9
:103E7C00A38923F0030343F00103A381A089054325
:103E8C00A581CDE7253C0008034610B5C9B2024414
:103E9C009342184601D1002003E0047801338C4290
:103EAC00F6D110BD0148FFF789BF00BFAC0200205E
:103EBC000148FFF784BF00BFAC0200201F2938B5B2
:103ECC0004460D4604D9162303604FF0FF3038BD6D
:103EDC00426C12B152F821304BB9204600F030F848
:103EEC002A4601462046BDE8384000F017B8012BA1
:103EFC000AD0591C03D1162303600120E7E70024E4
:103F0C00284642F8254098470020E0E7024B01463E
:103F1C001868FFF7D3BF00BF7400002038B500232A
:103F2C00064D0446084611462B6000F0D7F8431C9A
:103F3C0002D12B6803B1236038BD00BFB40200204E
:103F4C0000F0BCB810B50C46B1F90E1000F094F8A6
:103F5C000028ABBF636DA3891B1823F48053ACBF3F
:103F6C006365A38110BD2DE9F0411F468B89054681
:103F7C00DB050C46164605D502230022B1F90E10BE
:103F8C0000F068F8A389324623F48053A3812846B5
:103F9C003B46B4F90E10BDE8F04100F017B810B56F
:103FAC000C46B1F90E1000F055F8431CA38915BF4F
:103FBC00606523F4805343F48053A38118BFA3811D
:103FCC0010BDB1F90E1000F013B8000038B504465E
:103FDC00084611460022054D2A601A4600F0A4F846
:103FEC00431C02D12B6803B1236038BDB4020020FE
:103FFC0038B50023054D044608462B6000F04EF8FA
:10400C00431C02D12B6803B1236038BDB4020020DD
:10401C0038B50023064D0446084611462B6000F0C7
:10402C0045F8431C02D12B6803B1236038BD00BF97
:10403C00B402002038B50023054D044608462B6019
:10404C0000F044F8431C02D12B6803B1236038BD47
:10405C00B402002038B50446084611460022054D2E
:10406C002A601A4600F042F8431C02D12B6803B1B7
:10407C00236038BDB402002038B50446084611460A
:10408C000022054D2A601A4600F038F8431C02D174
:10409C002B6803B1236038BDB40200205822024BB8
:1040AC004FF0FF301A607047B40200205822024BC8
:1040BC004FF0FF301A607047B40200205822024BB8
:1040CC004FF0FF301A607047B40200205822024BA8
:1040DC0000201A60704700BFB40200205822024B27
:1040EC004FF0FF301A607047B40200205822024B88
:1040FC004FF0FF301A607047B40200205822024B78
:10410C004FF0FF301A607047B4020020044B024697
:10411C00196809B903491960186802441A60704794
:10412C00A0020020B80200205822024B4FF0FF30B2
:10413C001A607047B4020020FEE70000F8B500BF1B
:10414C00F8BC08BC9E467047F8B500BFF8BC08BC6C
:04415C009E467047C4
:10416000FFFFFFFFFFFFFFFFFFFFFFFFFFFFFFFF5F
:10417000FFFFFFFFFFFFFFFFFFFFFFFFFFFFFFFF4F
:10418000FFFFFFFFFFFFFFFFFFFFFFFFFFFFFFFF3F
:10419000FFFFFFFFFFFFFFFFFFFFFFFFFFFFFFFF2F
:1041A0000000000000000000181818181800181867
:1041B000282800000000000014147E2828FCA0A07D
:1041C000103C50507014147841A2440810224582CB
:1041D0003C4224181A264639101000000000000046
:1041E00004081020201008042010080404081020DF
:1041F00000281028000000000010107C10100000A3
:104200000000000000001020000000FF000000007F
:10421000000000000000181801020408102040806F
:104220003C41858991A1423C30509010101010FF04
:104230003C428408102040FF7C88083008088870C1
:10424000040C142444FF04047E40407804020478E3
:104250001C224180FC824438FF02040810204040A8
:1042600038444438444444383844827E0408C830D2
:10427000000000000000000000000000000000003E
:10428000000000000000000000000000000000002E
:10429000000000000000000000000000000000001E
:1042A000000000000000000010102828FF44828257
:1042B000FE8182FC828182FC3C4280808080423C84
:1042C0007C4241414141427C7E40407C4040407EB6
:1042D0007E40407C404040403C42404E4242423C56
:1042E000C3C3C3FFFFC3C3C37C1010101010107CE6
:1042F0007C04040404044438828CB0C0C0B08C82B6
:1043000080808080808081FE81C3A59981818181A8
:1043100081C1A191898583813C4281818181423C17
:10432000FC828182FC8080803C4281818985423D83
:10433000FC828182FCB08C831E2040201804023C49
:10434000FE10101010101010818181818181423C7B
:104350008282444428281000818181819191522CCD
:104360008142241818244281824428101010101011
:10437000FF020408102040FF382020202020203891
:10438000804020100804020138080808080808388E
:104390001028448200000000000000000000007EA1
:1043A0002010080000000000000038043C44443C99
:1043B000404040407844447800003E404040403E09
:1043C000040404043C44443C000038447C40443829
:1043D0003008081C080808083C4444443C0444389D
:1043E00040404078484444441818001818181818D9
:1043F000080008080808906020202428302824227B
:10440000181818181818181800005C6A4A4A4A4AFE
:1044100000005C62424242420000182442422418DA
:104420007C4242427C4040403E4242423E020202C6
:1044300000004C526040404000001C20300C04380A
:104440002020207C2020201C000042424242463A8C
:104450000000C6446C28381000009292AAAA444476
:104460000000422418182442000044444438083014
:1044700000007C040810207C001010204020101048
:104480001010101010101010001010080408101058
:10449000000000225488000000000000000000001E
:1044A00001020304060708090000000001020304DA
:1044B00002030405060708090A0B0C0D0E0F101065
:1044C00000000000780000205245454E54206D61E8
:1044D0006C6C6F6320737563636565646564002F3E
:1044E0006275696C642F676E752D746F6F6C732DB8
:1044F000666F722D73746D33325F392D3230323006
:104500002D71322D7570646174652E323032303108
:104510003030312D313632312F7372632F6E657723
:104520006C69622F6E65776C69622F6C6962632FAC
:104530007374646C69622F72616E642E63002C2048
:1045400066756E6374696F6E3A200061737365728D
:1045500074696F6E2022257322206661696C656420
:104560003A2066696C6520222573222C206C696EC6
:1045700065202564257325730A00232D302B200028
:10458000686C4C006566674546470030313233340D
:1045900035363738394142434445460030313233AD
:1045A000343536373839616263646566000000006F
:1045B00000000000000000000000000000000000FB
:1045C00000000000000000000000000000000000EB
:1045D00000000000000000000000000000000000DB
:1045E00000000000000000000000000000000000CB
:1045F00000000000000000000000000000000000BB
:1046000000000000000000000000000000000000AA
:084610003101000871100008DF
:044618000D01000888
:10461C00790C0008455A207465787400000000007D
:10462C00000000000000000000000000000000007E
:10463C00000000000000000000000000000000006E
:10464C00000000000000000000000000000000005E
:10465C00000000000000000000000000000000004E
:10466C00000000000000000000000000000000003E
:10467C0000000000000000000024F4000100000015
:10468C00100000007800002000000000D045000859
:10469C00F0450008B04500080000000000000000D4
:1046AC0000000000000000000000000000000000FE
:1046BC0000000000000000000000000000000000EE
:1046CC0000000000000000000000000000000000DE
:1046DC0000000000000000000000000000000000CE
:0846EC000000000000000000C6
:040000050800138D4F
:00000001FF
